{
	"XYield_flattened.sol": {
		"XYield": {
			"abi": [
				{
					"inputs": [
						{
							"internalType": "address",
							"name": "_priceFeed",
							"type": "address"
						},
						{
							"internalType": "address",
							"name": "_usdtToken",
							"type": "address"
						},
						{
							"internalType": "address",
							"name": "_swapRouter",
							"type": "address"
						},
						{
							"internalType": "address",
							"name": "_aaveGateway",
							"type": "address"
						}
					],
					"stateMutability": "nonpayable",
					"type": "constructor"
				},
				{
					"inputs": [],
					"name": "aaveGateway",
					"outputs": [
						{
							"internalType": "address",
							"name": "",
							"type": "address"
						}
					],
					"stateMutability": "view",
					"type": "function"
				},
				{
					"inputs": [],
					"name": "checkStatus",
					"outputs": [],
					"stateMutability": "nonpayable",
					"type": "function"
				},
				{
					"inputs": [],
					"name": "getEthUsdPrice",
					"outputs": [
						{
							"internalType": "uint256",
							"name": "",
							"type": "uint256"
						}
					],
					"stateMutability": "view",
					"type": "function"
				},
				{
					"inputs": [],
					"name": "poolFee",
					"outputs": [
						{
							"internalType": "uint24",
							"name": "",
							"type": "uint24"
						}
					],
					"stateMutability": "view",
					"type": "function"
				},
				{
					"inputs": [
						{
							"internalType": "address",
							"name": "",
							"type": "address"
						}
					],
					"name": "s_userProfile",
					"outputs": [
						{
							"internalType": "uint256",
							"name": "collateralTapInPrice",
							"type": "uint256"
						},
						{
							"internalType": "uint256",
							"name": "collateralBuyBackPrice",
							"type": "uint256"
						},
						{
							"internalType": "uint256",
							"name": "collateralToLiquidate",
							"type": "uint256"
						}
					],
					"stateMutability": "view",
					"type": "function"
				},
				{
					"inputs": [
						{
							"internalType": "uint256",
							"name": "_collateralTapInPrice",
							"type": "uint256"
						},
						{
							"internalType": "uint256",
							"name": "_collateralBuyBackPrice",
							"type": "uint256"
						},
						{
							"internalType": "uint256",
							"name": "_collateralToLiquidate",
							"type": "uint256"
						}
					],
					"name": "setUserProfile",
					"outputs": [],
					"stateMutability": "nonpayable",
					"type": "function"
				},
				{
					"inputs": [],
					"name": "swapRouter",
					"outputs": [
						{
							"internalType": "contract ISwapRouter",
							"name": "",
							"type": "address"
						}
					],
					"stateMutability": "view",
					"type": "function"
				},
				{
					"inputs": [],
					"name": "usdtToken",
					"outputs": [
						{
							"internalType": "contract IERC20",
							"name": "",
							"type": "address"
						}
					],
					"stateMutability": "view",
					"type": "function"
				}
			],
			"devdoc": {
				"kind": "dev",
				"methods": {},
				"version": 1
			},
			"evm": {
				"assembly": "    /* \"XYield_flattened.sol\":7524:11706  contract XYield {... */\n  mstore(0x40, 0x0100)\n    /* \"XYield_flattened.sol\":8162:8523  constructor(... */\n  callvalue\n  dup1\n  iszero\n  tag_1\n  jumpi\n  0x00\n  dup1\n  revert\ntag_1:\n  pop\n  mload(0x40)\n  sub(codesize, bytecodeSize)\n  dup1\n  bytecodeSize\n  dup4\n  codecopy\n  dup2\n  dup2\n  add\n  0x40\n  mstore\n  dup2\n  add\n  swap1\n  tag_2\n  swap2\n  swap1\n  tag_3\n  jump\t// in\ntag_2:\n    /* \"XYield_flattened.sol\":8341:8351  _priceFeed */\n  dup4\n    /* \"XYield_flattened.sol\":8305:8352  i_priceFeed = AggregatorV3Interface(_priceFeed) */\n  0xffffffffffffffffffffffffffffffffffffffff\n  and\n  0x80\n  dup2\n  0xffffffffffffffffffffffffffffffffffffffff\n  and\n  dup2\n  mstore\n  pop\n  pop\n    /* \"XYield_flattened.sol\":8381:8391  _usdtToken */\n  dup3\n    /* \"XYield_flattened.sol\":8362:8392  usdtToken = IERC20(_usdtToken) */\n  0xffffffffffffffffffffffffffffffffffffffff\n  and\n  0xa0\n  dup2\n  0xffffffffffffffffffffffffffffffffffffffff\n  and\n  dup2\n  mstore\n  pop\n  pop\n    /* \"XYield_flattened.sol\":8427:8438  _swapRouter */\n  dup2\n    /* \"XYield_flattened.sol\":8402:8439  swapRouter = ISwapRouter(_swapRouter) */\n  0xffffffffffffffffffffffffffffffffffffffff\n  and\n  0xc0\n  dup2\n  0xffffffffffffffffffffffffffffffffffffffff\n  and\n  dup2\n  mstore\n  pop\n  pop\n    /* \"XYield_flattened.sol\":8463:8475  _aaveGateway */\n  dup1\n    /* \"XYield_flattened.sol\":8449:8475  aaveGateway = _aaveGateway */\n  0xffffffffffffffffffffffffffffffffffffffff\n  and\n  0xe0\n  dup2\n  0xffffffffffffffffffffffffffffffffffffffff\n  and\n  dup2\n  mstore\n  pop\n  pop\n    /* \"XYield_flattened.sol\":8501:8516  block.timestamp */\n  timestamp\n    /* \"XYield_flattened.sol\":8485:8498  lastTimeStamp */\n  0x02\n    /* \"XYield_flattened.sol\":8485:8516  lastTimeStamp = block.timestamp */\n  dup2\n  swap1\n  sstore\n  pop\n    /* \"XYield_flattened.sol\":8162:8523  constructor(... */\n  pop\n  pop\n  pop\n  pop\n    /* \"XYield_flattened.sol\":7524:11706  contract XYield {... */\n  jump(tag_6)\n    /* \"#utility.yul\":88:205   */\ntag_8:\n    /* \"#utility.yul\":197:198   */\n  0x00\n    /* \"#utility.yul\":194:195   */\n  dup1\n    /* \"#utility.yul\":187:199   */\n  revert\n    /* \"#utility.yul\":334:460   */\ntag_10:\n    /* \"#utility.yul\":371:378   */\n  0x00\n    /* \"#utility.yul\":411:453   */\n  0xffffffffffffffffffffffffffffffffffffffff\n    /* \"#utility.yul\":404:409   */\n  dup3\n    /* \"#utility.yul\":400:454   */\n  and\n    /* \"#utility.yul\":389:454   */\n  swap1\n  pop\n    /* \"#utility.yul\":334:460   */\n  swap2\n  swap1\n  pop\n  jump\t// out\n    /* \"#utility.yul\":466:562   */\ntag_11:\n    /* \"#utility.yul\":503:510   */\n  0x00\n    /* \"#utility.yul\":532:556   */\n  tag_20\n    /* \"#utility.yul\":550:555   */\n  dup3\n    /* \"#utility.yul\":532:556   */\n  tag_10\n  jump\t// in\ntag_20:\n    /* \"#utility.yul\":521:556   */\n  swap1\n  pop\n    /* \"#utility.yul\":466:562   */\n  swap2\n  swap1\n  pop\n  jump\t// out\n    /* \"#utility.yul\":568:690   */\ntag_12:\n    /* \"#utility.yul\":641:665   */\n  tag_22\n    /* \"#utility.yul\":659:664   */\n  dup2\n    /* \"#utility.yul\":641:665   */\n  tag_11\n  jump\t// in\ntag_22:\n    /* \"#utility.yul\":634:639   */\n  dup2\n    /* \"#utility.yul\":631:666   */\n  eq\n    /* \"#utility.yul\":621:684   */\n  tag_23\n  jumpi\n    /* \"#utility.yul\":680:681   */\n  0x00\n    /* \"#utility.yul\":677:678   */\n  dup1\n    /* \"#utility.yul\":670:682   */\n  revert\n    /* \"#utility.yul\":621:684   */\ntag_23:\n    /* \"#utility.yul\":568:690   */\n  pop\n  jump\t// out\n    /* \"#utility.yul\":696:839   */\ntag_13:\n    /* \"#utility.yul\":753:758   */\n  0x00\n    /* \"#utility.yul\":784:790   */\n  dup2\n    /* \"#utility.yul\":778:791   */\n  mload\n    /* \"#utility.yul\":769:791   */\n  swap1\n  pop\n    /* \"#utility.yul\":800:833   */\n  tag_25\n    /* \"#utility.yul\":827:832   */\n  dup2\n    /* \"#utility.yul\":800:833   */\n  tag_12\n  jump\t// in\ntag_25:\n    /* \"#utility.yul\":696:839   */\n  swap3\n  swap2\n  pop\n  pop\n  jump\t// out\n    /* \"#utility.yul\":845:1665   */\ntag_3:\n    /* \"#utility.yul\":942:948   */\n  0x00\n    /* \"#utility.yul\":950:956   */\n  dup1\n    /* \"#utility.yul\":958:964   */\n  0x00\n    /* \"#utility.yul\":966:972   */\n  dup1\n    /* \"#utility.yul\":1015:1018   */\n  0x80\n    /* \"#utility.yul\":1003:1012   */\n  dup6\n    /* \"#utility.yul\":994:1001   */\n  dup8\n    /* \"#utility.yul\":990:1013   */\n  sub\n    /* \"#utility.yul\":986:1019   */\n  slt\n    /* \"#utility.yul\":983:1103   */\n  iszero\n  tag_27\n  jumpi\n    /* \"#utility.yul\":1022:1101   */\n  tag_28\n  tag_8\n  jump\t// in\ntag_28:\n    /* \"#utility.yul\":983:1103   */\ntag_27:\n    /* \"#utility.yul\":1142:1143   */\n  0x00\n    /* \"#utility.yul\":1167:1231   */\n  tag_29\n    /* \"#utility.yul\":1223:1230   */\n  dup8\n    /* \"#utility.yul\":1214:1220   */\n  dup3\n    /* \"#utility.yul\":1203:1212   */\n  dup9\n    /* \"#utility.yul\":1199:1221   */\n  add\n    /* \"#utility.yul\":1167:1231   */\n  tag_13\n  jump\t// in\ntag_29:\n    /* \"#utility.yul\":1157:1231   */\n  swap5\n  pop\n    /* \"#utility.yul\":1113:1241   */\n  pop\n    /* \"#utility.yul\":1280:1282   */\n  0x20\n    /* \"#utility.yul\":1306:1370   */\n  tag_30\n    /* \"#utility.yul\":1362:1369   */\n  dup8\n    /* \"#utility.yul\":1353:1359   */\n  dup3\n    /* \"#utility.yul\":1342:1351   */\n  dup9\n    /* \"#utility.yul\":1338:1360   */\n  add\n    /* \"#utility.yul\":1306:1370   */\n  tag_13\n  jump\t// in\ntag_30:\n    /* \"#utility.yul\":1296:1370   */\n  swap4\n  pop\n    /* \"#utility.yul\":1251:1380   */\n  pop\n    /* \"#utility.yul\":1419:1421   */\n  0x40\n    /* \"#utility.yul\":1445:1509   */\n  tag_31\n    /* \"#utility.yul\":1501:1508   */\n  dup8\n    /* \"#utility.yul\":1492:1498   */\n  dup3\n    /* \"#utility.yul\":1481:1490   */\n  dup9\n    /* \"#utility.yul\":1477:1499   */\n  add\n    /* \"#utility.yul\":1445:1509   */\n  tag_13\n  jump\t// in\ntag_31:\n    /* \"#utility.yul\":1435:1509   */\n  swap3\n  pop\n    /* \"#utility.yul\":1390:1519   */\n  pop\n    /* \"#utility.yul\":1558:1560   */\n  0x60\n    /* \"#utility.yul\":1584:1648   */\n  tag_32\n    /* \"#utility.yul\":1640:1647   */\n  dup8\n    /* \"#utility.yul\":1631:1637   */\n  dup3\n    /* \"#utility.yul\":1620:1629   */\n  dup9\n    /* \"#utility.yul\":1616:1638   */\n  add\n    /* \"#utility.yul\":1584:1648   */\n  tag_13\n  jump\t// in\ntag_32:\n    /* \"#utility.yul\":1574:1648   */\n  swap2\n  pop\n    /* \"#utility.yul\":1529:1658   */\n  pop\n    /* \"#utility.yul\":845:1665   */\n  swap3\n  swap6\n  swap2\n  swap5\n  pop\n  swap3\n  pop\n  jump\t// out\n    /* \"XYield_flattened.sol\":7524:11706  contract XYield {... */\ntag_6:\n  mload(0x80)\n  mload(0xa0)\n  mload(0xc0)\n  mload(0xe0)\n  codecopy(0x00, dataOffset(sub_0), dataSize(sub_0))\n  0x00\n  assignImmutable(\"0x980c46aeb242fb2816eec3c43a568cdc6adda404b46e62cce4e3fe7d929881e3\")\n  0x00\n  assignImmutable(\"0xa1d31fb8910bd30f6dac5a07b01c5fb14932867674942ae19dd14c237316007b\")\n  0x00\n  assignImmutable(\"0xddf732f49edf4f39000cbbb8d0940c0999195c9b1b0aec524c1c4b4adca5a581\")\n  0x00\n  assignImmutable(\"0x188e5a5b71233ee092fd8df209d4e7ce875dc9914c3b80c1ca11c66b0a19f684\")\n  return(0x00, dataSize(sub_0))\nstop\n\nsub_0: assembly {\n        /* \"XYield_flattened.sol\":7524:11706  contract XYield {... */\n      mstore(0x40, 0x80)\n      callvalue\n      dup1\n      iszero\n      tag_1\n      jumpi\n      0x00\n      dup1\n      revert\n    tag_1:\n      pop\n      jumpi(tag_2, lt(calldatasize, 0x04))\n      shr(0xe0, calldataload(0x00))\n      dup1\n      0xa0a8045e\n      gt\n      tag_11\n      jumpi\n      dup1\n      0xa0a8045e\n      eq\n      tag_7\n      jumpi\n      dup1\n      0xa98ad46c\n      eq\n      tag_8\n      jumpi\n      dup1\n      0xb119fb13\n      eq\n      tag_9\n      jumpi\n      dup1\n      0xc31c9c07\n      eq\n      tag_10\n      jumpi\n      jump(tag_2)\n    tag_11:\n      dup1\n      0x089fe6aa\n      eq\n      tag_3\n      jumpi\n      dup1\n      0x3b7104f2\n      eq\n      tag_4\n      jumpi\n      dup1\n      0x4fe0c742\n      eq\n      tag_5\n      jumpi\n      dup1\n      0x6b0e6976\n      eq\n      tag_6\n      jumpi\n    tag_2:\n      0x00\n      dup1\n      revert\n        /* \"XYield_flattened.sol\":8056:8094  uint24 public constant poolFee = 15000 */\n    tag_3:\n      tag_12\n      tag_13\n      jump\t// in\n    tag_12:\n      mload(0x40)\n      tag_14\n      swap2\n      swap1\n      tag_15\n      jump\t// in\n    tag_14:\n      mload(0x40)\n      dup1\n      swap2\n      sub\n      swap1\n      return\n        /* \"XYield_flattened.sol\":8901:9563  function checkStatus() external {... */\n    tag_4:\n      tag_16\n      tag_17\n      jump\t// in\n    tag_16:\n      stop\n        /* \"XYield_flattened.sol\":8119:8155  address public immutable aaveGateway */\n    tag_5:\n      tag_18\n      tag_19\n      jump\t// in\n    tag_18:\n      mload(0x40)\n      tag_20\n      swap2\n      swap1\n      tag_21\n      jump\t// in\n    tag_20:\n      mload(0x40)\n      dup1\n      swap2\n      sub\n      swap1\n      return\n        /* \"XYield_flattened.sol\":8529:8895  function setUserProfile(... */\n    tag_6:\n      tag_22\n      0x04\n      dup1\n      calldatasize\n      sub\n      dup2\n      add\n      swap1\n      tag_23\n      swap2\n      swap1\n      tag_24\n      jump\t// in\n    tag_23:\n      tag_25\n      jump\t// in\n    tag_22:\n      stop\n        /* \"XYield_flattened.sol\":9569:9813  function getEthUsdPrice() public view returns (uint256) {... */\n    tag_7:\n      tag_26\n      tag_27\n      jump\t// in\n    tag_26:\n      mload(0x40)\n      tag_28\n      swap2\n      swap1\n      tag_29\n      jump\t// in\n    tag_28:\n      mload(0x40)\n      dup1\n      swap2\n      sub\n      swap1\n      return\n        /* \"XYield_flattened.sol\":7972:8005  IERC20 public immutable usdtToken */\n    tag_8:\n      tag_30\n      tag_31\n      jump\t// in\n    tag_30:\n      mload(0x40)\n      tag_32\n      swap2\n      swap1\n      tag_33\n      jump\t// in\n    tag_32:\n      mload(0x40)\n      dup1\n      swap2\n      sub\n      swap1\n      return\n        /* \"XYield_flattened.sol\":7694:7745  mapping(address => UserInputs) public s_userProfile */\n    tag_9:\n      tag_34\n      0x04\n      dup1\n      calldatasize\n      sub\n      dup2\n      add\n      swap1\n      tag_35\n      swap2\n      swap1\n      tag_36\n      jump\t// in\n    tag_35:\n      tag_37\n      jump\t// in\n    tag_34:\n      mload(0x40)\n      tag_38\n      swap4\n      swap3\n      swap2\n      swap1\n      tag_39\n      jump\t// in\n    tag_38:\n      mload(0x40)\n      dup1\n      swap2\n      sub\n      swap1\n      return\n        /* \"XYield_flattened.sol\":8011:8050  ISwapRouter public immutable swapRouter */\n    tag_10:\n      tag_40\n      tag_41\n      jump\t// in\n    tag_40:\n      mload(0x40)\n      tag_42\n      swap2\n      swap1\n      tag_43\n      jump\t// in\n    tag_42:\n      mload(0x40)\n      dup1\n      swap2\n      sub\n      swap1\n      return\n        /* \"XYield_flattened.sol\":8056:8094  uint24 public constant poolFee = 15000 */\n    tag_13:\n        /* \"XYield_flattened.sol\":8089:8094  15000 */\n      0x3a98\n        /* \"XYield_flattened.sol\":8056:8094  uint24 public constant poolFee = 15000 */\n      dup2\n      jump\t// out\n        /* \"XYield_flattened.sol\":8901:9563  function checkStatus() external {... */\n    tag_17:\n        /* \"XYield_flattened.sol\":7902:7904  60 */\n      0x3c\n        /* \"XYield_flattened.sol\":8966:8979  lastTimeStamp */\n      sload(0x02)\n        /* \"XYield_flattened.sol\":8948:8963  block.timestamp */\n      timestamp\n        /* \"XYield_flattened.sol\":8948:8979  block.timestamp - lastTimeStamp */\n      tag_45\n      swap2\n      swap1\n      tag_46\n      jump\t// in\n    tag_45:\n        /* \"XYield_flattened.sol\":8947:8991  (block.timestamp - lastTimeStamp) > INTERVAL */\n      gt\n        /* \"XYield_flattened.sol\":8943:9557  if ((block.timestamp - lastTimeStamp) > INTERVAL) {... */\n      iszero\n      tag_47\n      jumpi\n        /* \"XYield_flattened.sol\":9007:9026  uint256 ethUsdPrice */\n      0x00\n        /* \"XYield_flattened.sol\":9029:9045  getEthUsdPrice() */\n      tag_48\n        /* \"XYield_flattened.sol\":9029:9043  getEthUsdPrice */\n      tag_27\n        /* \"XYield_flattened.sol\":9029:9045  getEthUsdPrice() */\n      jump\t// in\n    tag_48:\n        /* \"XYield_flattened.sol\":9007:9045  uint256 ethUsdPrice = getEthUsdPrice() */\n      swap1\n      pop\n        /* \"XYield_flattened.sol\":9065:9074  uint256 i */\n      0x00\n        /* \"XYield_flattened.sol\":9060:9501  for (uint256 i = 0; i < s_users.length; i++) {... */\n    tag_49:\n        /* \"XYield_flattened.sol\":9084:9091  s_users */\n      0x01\n        /* \"XYield_flattened.sol\":9084:9098  s_users.length */\n      dup1\n      sload\n      swap1\n      pop\n        /* \"XYield_flattened.sol\":9080:9081  i */\n      dup2\n        /* \"XYield_flattened.sol\":9080:9098  i < s_users.length */\n      lt\n        /* \"XYield_flattened.sol\":9060:9501  for (uint256 i = 0; i < s_users.length; i++) {... */\n      iszero\n      tag_50\n      jumpi\n        /* \"XYield_flattened.sol\":9123:9135  address user */\n      0x00\n        /* \"XYield_flattened.sol\":9138:9145  s_users */\n      0x01\n        /* \"XYield_flattened.sol\":9146:9147  i */\n      dup3\n        /* \"XYield_flattened.sol\":9138:9148  s_users[i] */\n      dup2\n      sload\n      dup2\n      lt\n      tag_52\n      jumpi\n      tag_53\n      tag_54\n      jump\t// in\n    tag_53:\n    tag_52:\n      swap1\n      0x00\n      mstore\n      keccak256(0x00, 0x20)\n      add\n      0x00\n      swap1\n      sload\n      swap1\n      0x0100\n      exp\n      swap1\n      div\n      0xffffffffffffffffffffffffffffffffffffffff\n      and\n        /* \"XYield_flattened.sol\":9123:9148  address user = s_users[i] */\n      swap1\n      pop\n        /* \"XYield_flattened.sol\":9166:9194  UserInputs memory userInputs */\n      0x00\n        /* \"XYield_flattened.sol\":9197:9210  s_userProfile */\n      dup1\n        /* \"XYield_flattened.sol\":9197:9216  s_userProfile[user] */\n      0x00\n        /* \"XYield_flattened.sol\":9211:9215  user */\n      dup4\n        /* \"XYield_flattened.sol\":9197:9216  s_userProfile[user] */\n      0xffffffffffffffffffffffffffffffffffffffff\n      and\n      0xffffffffffffffffffffffffffffffffffffffff\n      and\n      dup2\n      mstore\n      0x20\n      add\n      swap1\n      dup2\n      mstore\n      0x20\n      add\n      0x00\n      keccak256\n        /* \"XYield_flattened.sol\":9166:9216  UserInputs memory userInputs = s_userProfile[user] */\n      mload(0x40)\n      dup1\n      0x60\n      add\n      0x40\n      mstore\n      swap1\n      dup2\n      0x00\n      dup3\n      add\n      sload\n      dup2\n      mstore\n      0x20\n      add\n      0x01\n      dup3\n      add\n      sload\n      dup2\n      mstore\n      0x20\n      add\n      0x02\n      dup3\n      add\n      sload\n      dup2\n      mstore\n      pop\n      pop\n      swap1\n      pop\n        /* \"XYield_flattened.sol\":9254:9264  userInputs */\n      dup1\n        /* \"XYield_flattened.sol\":9254:9285  userInputs.collateralTapInPrice */\n      0x00\n      add\n      mload\n        /* \"XYield_flattened.sol\":9239:9250  ethUsdPrice */\n      dup5\n        /* \"XYield_flattened.sol\":9239:9285  ethUsdPrice >= userInputs.collateralTapInPrice */\n      lt\n        /* \"XYield_flattened.sol\":9235:9487  if (ethUsdPrice >= userInputs.collateralTapInPrice) {... */\n      tag_56\n      jumpi\n        /* \"XYield_flattened.sol\":9309:9354  tapIn(user, userInputs.collateralToLiquidate) */\n      tag_57\n        /* \"XYield_flattened.sol\":9315:9319  user */\n      dup3\n        /* \"XYield_flattened.sol\":9321:9331  userInputs */\n      dup3\n        /* \"XYield_flattened.sol\":9321:9353  userInputs.collateralToLiquidate */\n      0x40\n      add\n      mload\n        /* \"XYield_flattened.sol\":9309:9314  tapIn */\n      tag_58\n        /* \"XYield_flattened.sol\":9309:9354  tapIn(user, userInputs.collateralToLiquidate) */\n      jump\t// in\n    tag_57:\n        /* \"XYield_flattened.sol\":9235:9487  if (ethUsdPrice >= userInputs.collateralTapInPrice) {... */\n      jump(tag_59)\n    tag_56:\n        /* \"XYield_flattened.sol\":9398:9408  userInputs */\n      dup1\n        /* \"XYield_flattened.sol\":9398:9431  userInputs.collateralBuyBackPrice */\n      0x20\n      add\n      mload\n        /* \"XYield_flattened.sol\":9383:9394  ethUsdPrice */\n      dup5\n        /* \"XYield_flattened.sol\":9383:9431  ethUsdPrice <= userInputs.collateralBuyBackPrice */\n      gt\n        /* \"XYield_flattened.sol\":9379:9487  if (ethUsdPrice <= userInputs.collateralBuyBackPrice) {... */\n      tag_60\n      jumpi\n        /* \"XYield_flattened.sol\":9455:9468  buyBack(user) */\n      tag_61\n        /* \"XYield_flattened.sol\":9463:9467  user */\n      dup3\n        /* \"XYield_flattened.sol\":9455:9462  buyBack */\n      tag_62\n        /* \"XYield_flattened.sol\":9455:9468  buyBack(user) */\n      jump\t// in\n    tag_61:\n        /* \"XYield_flattened.sol\":9379:9487  if (ethUsdPrice <= userInputs.collateralBuyBackPrice) {... */\n    tag_60:\n        /* \"XYield_flattened.sol\":9235:9487  if (ethUsdPrice >= userInputs.collateralTapInPrice) {... */\n    tag_59:\n        /* \"XYield_flattened.sol\":9105:9501  {... */\n      pop\n      pop\n        /* \"XYield_flattened.sol\":9100:9103  i++ */\n      dup1\n      dup1\n      0x01\n      add\n      swap2\n      pop\n      pop\n        /* \"XYield_flattened.sol\":9060:9501  for (uint256 i = 0; i < s_users.length; i++) {... */\n      jump(tag_49)\n    tag_50:\n      pop\n        /* \"XYield_flattened.sol\":9531:9546  block.timestamp */\n      timestamp\n        /* \"XYield_flattened.sol\":9515:9528  lastTimeStamp */\n      0x02\n        /* \"XYield_flattened.sol\":9515:9546  lastTimeStamp = block.timestamp */\n      dup2\n      swap1\n      sstore\n      pop\n        /* \"XYield_flattened.sol\":8993:9557  {... */\n      pop\n        /* \"XYield_flattened.sol\":8943:9557  if ((block.timestamp - lastTimeStamp) > INTERVAL) {... */\n    tag_47:\n        /* \"XYield_flattened.sol\":8901:9563  function checkStatus() external {... */\n      jump\t// out\n        /* \"XYield_flattened.sol\":8119:8155  address public immutable aaveGateway */\n    tag_19:\n      immutable(\"0x980c46aeb242fb2816eec3c43a568cdc6adda404b46e62cce4e3fe7d929881e3\")\n      dup2\n      jump\t// out\n        /* \"XYield_flattened.sol\":8529:8895  function setUserProfile(... */\n    tag_25:\n        /* \"XYield_flattened.sol\":8726:8854  UserInputs(... */\n      mload(0x40)\n      dup1\n      0x60\n      add\n      0x40\n      mstore\n      dup1\n        /* \"XYield_flattened.sol\":8750:8771  _collateralTapInPrice */\n      dup5\n        /* \"XYield_flattened.sol\":8726:8854  UserInputs(... */\n      dup2\n      mstore\n      0x20\n      add\n        /* \"XYield_flattened.sol\":8785:8808  _collateralBuyBackPrice */\n      dup4\n        /* \"XYield_flattened.sol\":8726:8854  UserInputs(... */\n      dup2\n      mstore\n      0x20\n      add\n        /* \"XYield_flattened.sol\":8822:8844  _collateralToLiquidate */\n      dup3\n        /* \"XYield_flattened.sol\":8726:8854  UserInputs(... */\n      dup2\n      mstore\n      pop\n        /* \"XYield_flattened.sol\":8698:8711  s_userProfile */\n      0x00\n        /* \"XYield_flattened.sol\":8698:8723  s_userProfile[msg.sender] */\n      dup1\n        /* \"XYield_flattened.sol\":8712:8722  msg.sender */\n      caller\n        /* \"XYield_flattened.sol\":8698:8723  s_userProfile[msg.sender] */\n      0xffffffffffffffffffffffffffffffffffffffff\n      and\n      0xffffffffffffffffffffffffffffffffffffffff\n      and\n      dup2\n      mstore\n      0x20\n      add\n      swap1\n      dup2\n      mstore\n      0x20\n      add\n      0x00\n      keccak256\n        /* \"XYield_flattened.sol\":8698:8854  s_userProfile[msg.sender] = UserInputs(... */\n      0x00\n      dup3\n      add\n      mload\n      dup2\n      0x00\n      add\n      sstore\n      0x20\n      dup3\n      add\n      mload\n      dup2\n      0x01\n      add\n      sstore\n      0x40\n      dup3\n      add\n      mload\n      dup2\n      0x02\n      add\n      sstore\n      swap1\n      pop\n      pop\n        /* \"XYield_flattened.sol\":8864:8871  s_users */\n      0x01\n        /* \"XYield_flattened.sol\":8877:8887  msg.sender */\n      caller\n        /* \"XYield_flattened.sol\":8864:8888  s_users.push(msg.sender) */\n      swap1\n      dup1\n      0x01\n      dup2\n      sload\n      add\n      dup1\n      dup3\n      sstore\n      dup1\n      swap2\n      pop\n      pop\n      0x01\n      swap1\n      sub\n      swap1\n      0x00\n      mstore\n      keccak256(0x00, 0x20)\n      add\n      0x00\n      swap1\n      swap2\n      swap1\n      swap2\n      swap1\n      swap2\n      0x0100\n      exp\n      dup2\n      sload\n      dup2\n      0xffffffffffffffffffffffffffffffffffffffff\n      mul\n      not\n      and\n      swap1\n      dup4\n      0xffffffffffffffffffffffffffffffffffffffff\n      and\n      mul\n      or\n      swap1\n      sstore\n      pop\n        /* \"XYield_flattened.sol\":8529:8895  function setUserProfile(... */\n      pop\n      pop\n      pop\n      jump\t// out\n        /* \"XYield_flattened.sol\":9569:9813  function getEthUsdPrice() public view returns (uint256) {... */\n    tag_27:\n        /* \"XYield_flattened.sol\":9616:9623  uint256 */\n      0x00\n        /* \"XYield_flattened.sol\":9663:9676  int256 answer */\n      dup1\n        /* \"XYield_flattened.sol\":9719:9730  i_priceFeed */\n      immutable(\"0x188e5a5b71233ee092fd8df209d4e7ce875dc9914c3b80c1ca11c66b0a19f684\")\n        /* \"XYield_flattened.sol\":9719:9746  i_priceFeed.latestRoundData */\n      0xffffffffffffffffffffffffffffffffffffffff\n      and\n      0xfeaf968c\n        /* \"XYield_flattened.sol\":9719:9748  i_priceFeed.latestRoundData() */\n      mload(0x40)\n      dup2\n      0xffffffff\n      and\n      0xe0\n      shl\n      dup2\n      mstore\n      0x04\n      add\n      0xa0\n      mload(0x40)\n      dup1\n      dup4\n      sub\n      dup2\n      dup7\n      gas\n      staticcall\n      iszero\n      dup1\n      iszero\n      tag_67\n      jumpi\n      returndatasize\n      0x00\n      dup1\n      returndatacopy\n      revert(0x00, returndatasize)\n    tag_67:\n      pop\n      pop\n      pop\n      pop\n      mload(0x40)\n      returndatasize\n      not(0x1f)\n      0x1f\n      dup3\n      add\n      and\n      dup3\n      add\n      dup1\n      0x40\n      mstore\n      pop\n      dup2\n      add\n      swap1\n      tag_68\n      swap2\n      swap1\n      tag_69\n      jump\t// in\n    tag_68:\n        /* \"XYield_flattened.sol\":9635:9748  (... */\n      pop\n      pop\n      pop\n      swap2\n      pop\n      pop\n        /* \"XYield_flattened.sol\":7958:7965  10 ** 8 */\n      0x05f5e100\n        /* \"XYield_flattened.sol\":9775:9781  answer */\n      dup2\n        /* \"XYield_flattened.sol\":9767:9805  uint256(answer) * PRICE_FEED_PRECISION */\n      tag_70\n      swap2\n      swap1\n      tag_71\n      jump\t// in\n    tag_70:\n        /* \"XYield_flattened.sol\":9759:9806  return (uint256(answer) * PRICE_FEED_PRECISION) */\n      swap2\n      pop\n      pop\n        /* \"XYield_flattened.sol\":9569:9813  function getEthUsdPrice() public view returns (uint256) {... */\n      swap1\n      jump\t// out\n        /* \"XYield_flattened.sol\":7972:8005  IERC20 public immutable usdtToken */\n    tag_31:\n      immutable(\"0xddf732f49edf4f39000cbbb8d0940c0999195c9b1b0aec524c1c4b4adca5a581\")\n      dup2\n      jump\t// out\n        /* \"XYield_flattened.sol\":7694:7745  mapping(address => UserInputs) public s_userProfile */\n    tag_37:\n      mstore(0x20, 0x00)\n      dup1\n      0x00\n      mstore\n      keccak256(0x00, 0x40)\n      0x00\n      swap2\n      pop\n      swap1\n      pop\n      dup1\n      0x00\n      add\n      sload\n      swap1\n      dup1\n      0x01\n      add\n      sload\n      swap1\n      dup1\n      0x02\n      add\n      sload\n      swap1\n      pop\n      dup4\n      jump\t// out\n        /* \"XYield_flattened.sol\":8011:8050  ISwapRouter public immutable swapRouter */\n    tag_41:\n      immutable(\"0xa1d31fb8910bd30f6dac5a07b01c5fb14932867674942ae19dd14c237316007b\")\n      dup2\n      jump\t// out\n        /* \"XYield_flattened.sol\":9819:10665  function tapIn(address _user, uint256 _amount) internal {... */\n    tag_58:\n        /* \"XYield_flattened.sol\":9933:9945  bool success */\n      0x00\n        /* \"XYield_flattened.sol\":9951:9962  aaveGateway */\n      immutable(\"0x980c46aeb242fb2816eec3c43a568cdc6adda404b46e62cce4e3fe7d929881e3\")\n        /* \"XYield_flattened.sol\":9951:9967  aaveGateway.call */\n      0xffffffffffffffffffffffffffffffffffffffff\n      and\n        /* \"XYield_flattened.sol\":10045:10050  _user */\n      dup4\n        /* \"XYield_flattened.sol\":10052:10059  _amount */\n      dup4\n        /* \"XYield_flattened.sol\":10061:10066  _user */\n      dup6\n        /* \"XYield_flattened.sol\":9981:10067  abi.encodeWithSignature(\"withdrawETH(address,uint256,address)\", _user, _amount, _user) */\n      add(0x24, mload(0x40))\n      tag_73\n      swap4\n      swap3\n      swap2\n      swap1\n      tag_74\n      jump\t// in\n    tag_73:\n      mload(0x40)\n      0x20\n      dup2\n      dup4\n      sub\n      sub\n      dup2\n      mstore\n      swap1\n      0x40\n      mstore\n      and(not(0xffffffffffffffffffffffffffffffffffffffffffffffffffffffff), 0x80500d2000000000000000000000000000000000000000000000000000000000)\n      0x20\n      dup3\n      add\n      dup1\n      mload\n      0xffffffffffffffffffffffffffffffffffffffffffffffffffffffff\n      dup4\n      dup2\n      dup4\n      and\n      or\n      dup4\n      mstore\n      pop\n      pop\n      pop\n      pop\n        /* \"XYield_flattened.sol\":9951:10077  aaveGateway.call(... */\n      mload(0x40)\n      tag_75\n      swap2\n      swap1\n      tag_76\n      jump\t// in\n    tag_75:\n      0x00\n      mload(0x40)\n      dup1\n      dup4\n      sub\n      dup2\n      0x00\n      dup7\n      gas\n      call\n      swap2\n      pop\n      pop\n      returndatasize\n      dup1\n      0x00\n      dup2\n      eq\n      tag_79\n      jumpi\n      mload(0x40)\n      swap2\n      pop\n      and(add(returndatasize, 0x3f), not(0x1f))\n      dup3\n      add\n      0x40\n      mstore\n      returndatasize\n      dup3\n      mstore\n      returndatasize\n      0x00\n      0x20\n      dup5\n      add\n      returndatacopy\n      jump(tag_78)\n    tag_79:\n      0x60\n      swap2\n      pop\n    tag_78:\n      pop\n        /* \"XYield_flattened.sol\":9932:10077  (bool success, ) = aaveGateway.call(... */\n      pop\n      swap1\n      pop\n        /* \"XYield_flattened.sol\":10095:10102  success */\n      dup1\n        /* \"XYield_flattened.sol\":10087:10134  require(success, \"Withdrawal from Aave failed\") */\n      tag_80\n      jumpi\n      mload(0x40)\n      0x08c379a000000000000000000000000000000000000000000000000000000000\n      dup2\n      mstore\n      0x04\n      add\n      tag_81\n      swap1\n      tag_82\n      jump\t// in\n    tag_81:\n      mload(0x40)\n      dup1\n      swap2\n      sub\n      swap1\n      revert\n    tag_80:\n        /* \"XYield_flattened.sol\":10185:10233  ISwapRouter.ExactInputSingleParams memory params */\n      0x00\n        /* \"XYield_flattened.sol\":10248:10612  ISwapRouter.ExactInputSingleParams({... */\n      mload(0x40)\n      dup1\n      0x0100\n      add\n      0x40\n      mstore\n      dup1\n        /* \"XYield_flattened.sol\":10318:10319  0 */\n      0x00\n        /* \"XYield_flattened.sol\":10248:10612  ISwapRouter.ExactInputSingleParams({... */\n      0xffffffffffffffffffffffffffffffffffffffff\n      and\n      dup2\n      mstore\n      0x20\n      add\n        /* \"XYield_flattened.sol\":10370:10379  usdtToken */\n      immutable(\"0xddf732f49edf4f39000cbbb8d0940c0999195c9b1b0aec524c1c4b4adca5a581\")\n        /* \"XYield_flattened.sol\":10248:10612  ISwapRouter.ExactInputSingleParams({... */\n      0xffffffffffffffffffffffffffffffffffffffff\n      and\n      dup2\n      mstore\n      0x20\n      add\n        /* \"XYield_flattened.sol\":8089:8094  15000 */\n      0x3a98\n        /* \"XYield_flattened.sol\":10248:10612  ISwapRouter.ExactInputSingleParams({... */\n      0xffffff\n      and\n      dup2\n      mstore\n      0x20\n      add\n        /* \"XYield_flattened.sol\":10439:10444  _user */\n      dup6\n        /* \"XYield_flattened.sol\":10248:10612  ISwapRouter.ExactInputSingleParams({... */\n      0xffffffffffffffffffffffffffffffffffffffff\n      and\n      dup2\n      mstore\n      0x20\n      add\n        /* \"XYield_flattened.sol\":10472:10487  block.timestamp */\n      timestamp\n        /* \"XYield_flattened.sol\":10248:10612  ISwapRouter.ExactInputSingleParams({... */\n      dup2\n      mstore\n      0x20\n      add\n        /* \"XYield_flattened.sol\":10515:10522  _amount */\n      dup5\n        /* \"XYield_flattened.sol\":10248:10612  ISwapRouter.ExactInputSingleParams({... */\n      dup2\n      mstore\n      0x20\n      add\n        /* \"XYield_flattened.sol\":10558:10559  0 */\n      0x00\n        /* \"XYield_flattened.sol\":10248:10612  ISwapRouter.ExactInputSingleParams({... */\n      dup2\n      mstore\n      0x20\n      add\n        /* \"XYield_flattened.sol\":10596:10597  0 */\n      0x00\n        /* \"XYield_flattened.sol\":10248:10612  ISwapRouter.ExactInputSingleParams({... */\n      0xffffffffffffffffffffffffffffffffffffffff\n      and\n      dup2\n      mstore\n      pop\n        /* \"XYield_flattened.sol\":10185:10612  ISwapRouter.ExactInputSingleParams memory params =... */\n      swap1\n      pop\n        /* \"XYield_flattened.sol\":10623:10633  swapRouter */\n      immutable(\"0xa1d31fb8910bd30f6dac5a07b01c5fb14932867674942ae19dd14c237316007b\")\n        /* \"XYield_flattened.sol\":10623:10650  swapRouter.exactInputSingle */\n      0xffffffffffffffffffffffffffffffffffffffff\n      and\n      0x414bf389\n        /* \"XYield_flattened.sol\":10651:10657  params */\n      dup3\n        /* \"XYield_flattened.sol\":10623:10658  swapRouter.exactInputSingle(params) */\n      mload(0x40)\n      dup3\n      0xffffffff\n      and\n      0xe0\n      shl\n      dup2\n      mstore\n      0x04\n      add\n      tag_83\n      swap2\n      swap1\n      tag_84\n      jump\t// in\n    tag_83:\n      0x20\n      mload(0x40)\n      dup1\n      dup4\n      sub\n      dup2\n      0x00\n      dup8\n      gas\n      call\n      iszero\n      dup1\n      iszero\n      tag_86\n      jumpi\n      returndatasize\n      0x00\n      dup1\n      returndatacopy\n      revert(0x00, returndatasize)\n    tag_86:\n      pop\n      pop\n      pop\n      pop\n      mload(0x40)\n      returndatasize\n      not(0x1f)\n      0x1f\n      dup3\n      add\n      and\n      dup3\n      add\n      dup1\n      0x40\n      mstore\n      pop\n      dup2\n      add\n      swap1\n      tag_87\n      swap2\n      swap1\n      tag_88\n      jump\t// in\n    tag_87:\n      pop\n        /* \"XYield_flattened.sol\":9875:10665  {... */\n      pop\n      pop\n        /* \"XYield_flattened.sol\":9819:10665  function tapIn(address _user, uint256 _amount) internal {... */\n      pop\n      pop\n      jump\t// out\n        /* \"XYield_flattened.sol\":10671:11704  function buyBack(address _user) internal {... */\n    tag_62:\n        /* \"XYield_flattened.sol\":10766:10785  uint256 usdtBalance */\n      0x00\n        /* \"XYield_flattened.sol\":10788:10797  usdtToken */\n      immutable(\"0xddf732f49edf4f39000cbbb8d0940c0999195c9b1b0aec524c1c4b4adca5a581\")\n        /* \"XYield_flattened.sol\":10788:10807  usdtToken.balanceOf */\n      0xffffffffffffffffffffffffffffffffffffffff\n      and\n      0x70a08231\n        /* \"XYield_flattened.sol\":10808:10813  _user */\n      dup4\n        /* \"XYield_flattened.sol\":10788:10814  usdtToken.balanceOf(_user) */\n      mload(0x40)\n      dup3\n      0xffffffff\n      and\n      0xe0\n      shl\n      dup2\n      mstore\n      0x04\n      add\n      tag_90\n      swap2\n      swap1\n      tag_21\n      jump\t// in\n    tag_90:\n      0x20\n      mload(0x40)\n      dup1\n      dup4\n      sub\n      dup2\n      dup7\n      gas\n      staticcall\n      iszero\n      dup1\n      iszero\n      tag_92\n      jumpi\n      returndatasize\n      0x00\n      dup1\n      returndatacopy\n      revert(0x00, returndatasize)\n    tag_92:\n      pop\n      pop\n      pop\n      pop\n      mload(0x40)\n      returndatasize\n      not(0x1f)\n      0x1f\n      dup3\n      add\n      and\n      dup3\n      add\n      dup1\n      0x40\n      mstore\n      pop\n      dup2\n      add\n      swap1\n      tag_93\n      swap2\n      swap1\n      tag_88\n      jump\t// in\n    tag_93:\n        /* \"XYield_flattened.sol\":10766:10814  uint256 usdtBalance = usdtToken.balanceOf(_user) */\n      swap1\n      pop\n        /* \"XYield_flattened.sol\":10869:10878  usdtToken */\n      immutable(\"0xddf732f49edf4f39000cbbb8d0940c0999195c9b1b0aec524c1c4b4adca5a581\")\n        /* \"XYield_flattened.sol\":10869:10886  usdtToken.approve */\n      0xffffffffffffffffffffffffffffffffffffffff\n      and\n      0x095ea7b3\n        /* \"XYield_flattened.sol\":10895:10905  swapRouter */\n      immutable(\"0xa1d31fb8910bd30f6dac5a07b01c5fb14932867674942ae19dd14c237316007b\")\n        /* \"XYield_flattened.sol\":10908:10919  usdtBalance */\n      dup4\n        /* \"XYield_flattened.sol\":10869:10920  usdtToken.approve(address(swapRouter), usdtBalance) */\n      mload(0x40)\n      dup4\n      0xffffffff\n      and\n      0xe0\n      shl\n      dup2\n      mstore\n      0x04\n      add\n      tag_94\n      swap3\n      swap2\n      swap1\n      tag_95\n      jump\t// in\n    tag_94:\n      0x20\n      mload(0x40)\n      dup1\n      dup4\n      sub\n      dup2\n      0x00\n      dup8\n      gas\n      call\n      iszero\n      dup1\n      iszero\n      tag_97\n      jumpi\n      returndatasize\n      0x00\n      dup1\n      returndatacopy\n      revert(0x00, returndatasize)\n    tag_97:\n      pop\n      pop\n      pop\n      pop\n      mload(0x40)\n      returndatasize\n      not(0x1f)\n      0x1f\n      dup3\n      add\n      and\n      dup3\n      add\n      dup1\n      0x40\n      mstore\n      pop\n      dup2\n      add\n      swap1\n      tag_98\n      swap2\n      swap1\n      tag_99\n      jump\t// in\n    tag_98:\n      pop\n        /* \"XYield_flattened.sol\":10971:11020  ISwapRouter.ExactOutputSingleParams memory params */\n      0x00\n        /* \"XYield_flattened.sol\":11035:11420  ISwapRouter.ExactOutputSingleParams({... */\n      mload(0x40)\n      dup1\n      0x0100\n      add\n      0x40\n      mstore\n      dup1\n        /* \"XYield_flattened.sol\":11106:11115  usdtToken */\n      immutable(\"0xddf732f49edf4f39000cbbb8d0940c0999195c9b1b0aec524c1c4b4adca5a581\")\n        /* \"XYield_flattened.sol\":11035:11420  ISwapRouter.ExactOutputSingleParams({... */\n      0xffffffffffffffffffffffffffffffffffffffff\n      and\n      dup2\n      mstore\n      0x20\n      add\n        /* \"XYield_flattened.sol\":11152:11153  0 */\n      0x00\n        /* \"XYield_flattened.sol\":11035:11420  ISwapRouter.ExactOutputSingleParams({... */\n      0xffffffffffffffffffffffffffffffffffffffff\n      and\n      dup2\n      mstore\n      0x20\n      add\n        /* \"XYield_flattened.sol\":8089:8094  15000 */\n      0x3a98\n        /* \"XYield_flattened.sol\":11035:11420  ISwapRouter.ExactOutputSingleParams({... */\n      0xffffff\n      and\n      dup2\n      mstore\n      0x20\n      add\n        /* \"XYield_flattened.sol\":11227:11232  _user */\n      dup5\n        /* \"XYield_flattened.sol\":11035:11420  ISwapRouter.ExactOutputSingleParams({... */\n      0xffffffffffffffffffffffffffffffffffffffff\n      and\n      dup2\n      mstore\n      0x20\n      add\n        /* \"XYield_flattened.sol\":11260:11275  block.timestamp */\n      timestamp\n        /* \"XYield_flattened.sol\":11035:11420  ISwapRouter.ExactOutputSingleParams({... */\n      dup2\n      mstore\n      0x20\n      add\n        /* \"XYield_flattened.sol\":11304:11315  usdtBalance */\n      dup4\n        /* \"XYield_flattened.sol\":11035:11420  ISwapRouter.ExactOutputSingleParams({... */\n      dup2\n      mstore\n      0x20\n      add\n        /* \"XYield_flattened.sol\":11350:11367  type(uint256).max */\n      0xffffffffffffffffffffffffffffffffffffffffffffffffffffffffffffffff\n        /* \"XYield_flattened.sol\":11035:11420  ISwapRouter.ExactOutputSingleParams({... */\n      dup2\n      mstore\n      0x20\n      add\n        /* \"XYield_flattened.sol\":11404:11405  0 */\n      0x00\n        /* \"XYield_flattened.sol\":11035:11420  ISwapRouter.ExactOutputSingleParams({... */\n      0xffffffffffffffffffffffffffffffffffffffff\n      and\n      dup2\n      mstore\n      pop\n        /* \"XYield_flattened.sol\":10971:11420  ISwapRouter.ExactOutputSingleParams memory params =... */\n      swap1\n      pop\n        /* \"XYield_flattened.sol\":11431:11441  swapRouter */\n      immutable(\"0xa1d31fb8910bd30f6dac5a07b01c5fb14932867674942ae19dd14c237316007b\")\n        /* \"XYield_flattened.sol\":11431:11459  swapRouter.exactOutputSingle */\n      0xffffffffffffffffffffffffffffffffffffffff\n      and\n      0xdb3e2198\n        /* \"XYield_flattened.sol\":11460:11466  params */\n      dup3\n        /* \"XYield_flattened.sol\":11431:11467  swapRouter.exactOutputSingle(params) */\n      mload(0x40)\n      dup3\n      0xffffffff\n      and\n      0xe0\n      shl\n      dup2\n      mstore\n      0x04\n      add\n      tag_100\n      swap2\n      swap1\n      tag_101\n      jump\t// in\n    tag_100:\n      0x20\n      mload(0x40)\n      dup1\n      dup4\n      sub\n      dup2\n      0x00\n      dup8\n      gas\n      call\n      iszero\n      dup1\n      iszero\n      tag_103\n      jumpi\n      returndatasize\n      0x00\n      dup1\n      returndatacopy\n      revert(0x00, returndatasize)\n    tag_103:\n      pop\n      pop\n      pop\n      pop\n      mload(0x40)\n      returndatasize\n      not(0x1f)\n      0x1f\n      dup3\n      add\n      and\n      dup3\n      add\n      dup1\n      0x40\n      mstore\n      pop\n      dup2\n      add\n      swap1\n      tag_104\n      swap2\n      swap1\n      tag_88\n      jump\t// in\n    tag_104:\n      pop\n        /* \"XYield_flattened.sol\":11524:11536  bool success */\n      0x00\n        /* \"XYield_flattened.sol\":11542:11553  aaveGateway */\n      immutable(\"0x980c46aeb242fb2816eec3c43a568cdc6adda404b46e62cce4e3fe7d929881e3\")\n        /* \"XYield_flattened.sol\":11542:11558  aaveGateway.call */\n      0xffffffffffffffffffffffffffffffffffffffff\n      and\n        /* \"XYield_flattened.sol\":11626:11631  _user */\n      dup5\n        /* \"XYield_flattened.sol\":11633:11634  0 */\n      0x00\n        /* \"XYield_flattened.sol\":11572:11635  abi.encodeWithSignature(\"depositETH(address,uint16)\", _user, 0) */\n      add(0x24, mload(0x40))\n      tag_105\n      swap3\n      swap2\n      swap1\n      tag_106\n      jump\t// in\n    tag_105:\n      mload(0x40)\n      0x20\n      dup2\n      dup4\n      sub\n      sub\n      dup2\n      mstore\n      swap1\n      0x40\n      mstore\n      and(not(0xffffffffffffffffffffffffffffffffffffffffffffffffffffffff), 0x58c22be700000000000000000000000000000000000000000000000000000000)\n      0x20\n      dup3\n      add\n      dup1\n      mload\n      0xffffffffffffffffffffffffffffffffffffffffffffffffffffffff\n      dup4\n      dup2\n      dup4\n      and\n      or\n      dup4\n      mstore\n      pop\n      pop\n      pop\n      pop\n        /* \"XYield_flattened.sol\":11542:11645  aaveGateway.call(... */\n      mload(0x40)\n      tag_107\n      swap2\n      swap1\n      tag_76\n      jump\t// in\n    tag_107:\n      0x00\n      mload(0x40)\n      dup1\n      dup4\n      sub\n      dup2\n      0x00\n      dup7\n      gas\n      call\n      swap2\n      pop\n      pop\n      returndatasize\n      dup1\n      0x00\n      dup2\n      eq\n      tag_110\n      jumpi\n      mload(0x40)\n      swap2\n      pop\n      and(add(returndatasize, 0x3f), not(0x1f))\n      dup3\n      add\n      0x40\n      mstore\n      returndatasize\n      dup3\n      mstore\n      returndatasize\n      0x00\n      0x20\n      dup5\n      add\n      returndatacopy\n      jump(tag_109)\n    tag_110:\n      0x60\n      swap2\n      pop\n    tag_109:\n      pop\n        /* \"XYield_flattened.sol\":11523:11645  (bool success, ) = aaveGateway.call(... */\n      pop\n      swap1\n      pop\n        /* \"XYield_flattened.sol\":11663:11670  success */\n      dup1\n        /* \"XYield_flattened.sol\":11655:11697  require(success, \"Deposit to Aave failed\") */\n      tag_111\n      jumpi\n      mload(0x40)\n      0x08c379a000000000000000000000000000000000000000000000000000000000\n      dup2\n      mstore\n      0x04\n      add\n      tag_112\n      swap1\n      tag_113\n      jump\t// in\n    tag_112:\n      mload(0x40)\n      dup1\n      swap2\n      sub\n      swap1\n      revert\n    tag_111:\n        /* \"XYield_flattened.sol\":10712:11704  {... */\n      pop\n      pop\n      pop\n        /* \"XYield_flattened.sol\":10671:11704  function buyBack(address _user) internal {... */\n      pop\n      jump\t// out\n        /* \"#utility.yul\":7:98   */\n    tag_114:\n        /* \"#utility.yul\":43:50   */\n      0x00\n        /* \"#utility.yul\":83:91   */\n      0xffffff\n        /* \"#utility.yul\":76:81   */\n      dup3\n        /* \"#utility.yul\":72:92   */\n      and\n        /* \"#utility.yul\":61:92   */\n      swap1\n      pop\n        /* \"#utility.yul\":7:98   */\n      swap2\n      swap1\n      pop\n      jump\t// out\n        /* \"#utility.yul\":104:219   */\n    tag_115:\n        /* \"#utility.yul\":189:212   */\n      tag_168\n        /* \"#utility.yul\":206:211   */\n      dup2\n        /* \"#utility.yul\":189:212   */\n      tag_114\n      jump\t// in\n    tag_168:\n        /* \"#utility.yul\":184:187   */\n      dup3\n        /* \"#utility.yul\":177:213   */\n      mstore\n        /* \"#utility.yul\":104:219   */\n      pop\n      pop\n      jump\t// out\n        /* \"#utility.yul\":225:443   */\n    tag_15:\n        /* \"#utility.yul\":316:320   */\n      0x00\n        /* \"#utility.yul\":354:356   */\n      0x20\n        /* \"#utility.yul\":343:352   */\n      dup3\n        /* \"#utility.yul\":339:357   */\n      add\n        /* \"#utility.yul\":331:357   */\n      swap1\n      pop\n        /* \"#utility.yul\":367:436   */\n      tag_170\n        /* \"#utility.yul\":433:434   */\n      0x00\n        /* \"#utility.yul\":422:431   */\n      dup4\n        /* \"#utility.yul\":418:435   */\n      add\n        /* \"#utility.yul\":409:415   */\n      dup5\n        /* \"#utility.yul\":367:436   */\n      tag_115\n      jump\t// in\n    tag_170:\n        /* \"#utility.yul\":225:443   */\n      swap3\n      swap2\n      pop\n      pop\n      jump\t// out\n        /* \"#utility.yul\":449:575   */\n    tag_116:\n        /* \"#utility.yul\":486:493   */\n      0x00\n        /* \"#utility.yul\":526:568   */\n      0xffffffffffffffffffffffffffffffffffffffff\n        /* \"#utility.yul\":519:524   */\n      dup3\n        /* \"#utility.yul\":515:569   */\n      and\n        /* \"#utility.yul\":504:569   */\n      swap1\n      pop\n        /* \"#utility.yul\":449:575   */\n      swap2\n      swap1\n      pop\n      jump\t// out\n        /* \"#utility.yul\":581:677   */\n    tag_117:\n        /* \"#utility.yul\":618:625   */\n      0x00\n        /* \"#utility.yul\":647:671   */\n      tag_173\n        /* \"#utility.yul\":665:670   */\n      dup3\n        /* \"#utility.yul\":647:671   */\n      tag_116\n      jump\t// in\n    tag_173:\n        /* \"#utility.yul\":636:671   */\n      swap1\n      pop\n        /* \"#utility.yul\":581:677   */\n      swap2\n      swap1\n      pop\n      jump\t// out\n        /* \"#utility.yul\":683:801   */\n    tag_118:\n        /* \"#utility.yul\":770:794   */\n      tag_175\n        /* \"#utility.yul\":788:793   */\n      dup2\n        /* \"#utility.yul\":770:794   */\n      tag_117\n      jump\t// in\n    tag_175:\n        /* \"#utility.yul\":765:768   */\n      dup3\n        /* \"#utility.yul\":758:795   */\n      mstore\n        /* \"#utility.yul\":683:801   */\n      pop\n      pop\n      jump\t// out\n        /* \"#utility.yul\":807:1029   */\n    tag_21:\n        /* \"#utility.yul\":900:904   */\n      0x00\n        /* \"#utility.yul\":938:940   */\n      0x20\n        /* \"#utility.yul\":927:936   */\n      dup3\n        /* \"#utility.yul\":923:941   */\n      add\n        /* \"#utility.yul\":915:941   */\n      swap1\n      pop\n        /* \"#utility.yul\":951:1022   */\n      tag_177\n        /* \"#utility.yul\":1019:1020   */\n      0x00\n        /* \"#utility.yul\":1008:1017   */\n      dup4\n        /* \"#utility.yul\":1004:1021   */\n      add\n        /* \"#utility.yul\":995:1001   */\n      dup5\n        /* \"#utility.yul\":951:1022   */\n      tag_118\n      jump\t// in\n    tag_177:\n        /* \"#utility.yul\":807:1029   */\n      swap3\n      swap2\n      pop\n      pop\n      jump\t// out\n        /* \"#utility.yul\":1116:1233   */\n    tag_120:\n        /* \"#utility.yul\":1225:1226   */\n      0x00\n        /* \"#utility.yul\":1222:1223   */\n      dup1\n        /* \"#utility.yul\":1215:1227   */\n      revert\n        /* \"#utility.yul\":1362:1439   */\n    tag_122:\n        /* \"#utility.yul\":1399:1406   */\n      0x00\n        /* \"#utility.yul\":1428:1433   */\n      dup2\n        /* \"#utility.yul\":1417:1433   */\n      swap1\n      pop\n        /* \"#utility.yul\":1362:1439   */\n      swap2\n      swap1\n      pop\n      jump\t// out\n        /* \"#utility.yul\":1445:1567   */\n    tag_123:\n        /* \"#utility.yul\":1518:1542   */\n      tag_183\n        /* \"#utility.yul\":1536:1541   */\n      dup2\n        /* \"#utility.yul\":1518:1542   */\n      tag_122\n      jump\t// in\n    tag_183:\n        /* \"#utility.yul\":1511:1516   */\n      dup2\n        /* \"#utility.yul\":1508:1543   */\n      eq\n        /* \"#utility.yul\":1498:1561   */\n      tag_184\n      jumpi\n        /* \"#utility.yul\":1557:1558   */\n      0x00\n        /* \"#utility.yul\":1554:1555   */\n      dup1\n        /* \"#utility.yul\":1547:1559   */\n      revert\n        /* \"#utility.yul\":1498:1561   */\n    tag_184:\n        /* \"#utility.yul\":1445:1567   */\n      pop\n      jump\t// out\n        /* \"#utility.yul\":1573:1712   */\n    tag_124:\n        /* \"#utility.yul\":1619:1624   */\n      0x00\n        /* \"#utility.yul\":1657:1663   */\n      dup2\n        /* \"#utility.yul\":1644:1664   */\n      calldataload\n        /* \"#utility.yul\":1635:1664   */\n      swap1\n      pop\n        /* \"#utility.yul\":1673:1706   */\n      tag_186\n        /* \"#utility.yul\":1700:1705   */\n      dup2\n        /* \"#utility.yul\":1673:1706   */\n      tag_123\n      jump\t// in\n    tag_186:\n        /* \"#utility.yul\":1573:1712   */\n      swap3\n      swap2\n      pop\n      pop\n      jump\t// out\n        /* \"#utility.yul\":1718:2337   */\n    tag_24:\n        /* \"#utility.yul\":1795:1801   */\n      0x00\n        /* \"#utility.yul\":1803:1809   */\n      dup1\n        /* \"#utility.yul\":1811:1817   */\n      0x00\n        /* \"#utility.yul\":1860:1862   */\n      0x60\n        /* \"#utility.yul\":1848:1857   */\n      dup5\n        /* \"#utility.yul\":1839:1846   */\n      dup7\n        /* \"#utility.yul\":1835:1858   */\n      sub\n        /* \"#utility.yul\":1831:1863   */\n      slt\n        /* \"#utility.yul\":1828:1947   */\n      iszero\n      tag_188\n      jumpi\n        /* \"#utility.yul\":1866:1945   */\n      tag_189\n      tag_120\n      jump\t// in\n    tag_189:\n        /* \"#utility.yul\":1828:1947   */\n    tag_188:\n        /* \"#utility.yul\":1986:1987   */\n      0x00\n        /* \"#utility.yul\":2011:2064   */\n      tag_190\n        /* \"#utility.yul\":2056:2063   */\n      dup7\n        /* \"#utility.yul\":2047:2053   */\n      dup3\n        /* \"#utility.yul\":2036:2045   */\n      dup8\n        /* \"#utility.yul\":2032:2054   */\n      add\n        /* \"#utility.yul\":2011:2064   */\n      tag_124\n      jump\t// in\n    tag_190:\n        /* \"#utility.yul\":2001:2064   */\n      swap4\n      pop\n        /* \"#utility.yul\":1957:2074   */\n      pop\n        /* \"#utility.yul\":2113:2115   */\n      0x20\n        /* \"#utility.yul\":2139:2192   */\n      tag_191\n        /* \"#utility.yul\":2184:2191   */\n      dup7\n        /* \"#utility.yul\":2175:2181   */\n      dup3\n        /* \"#utility.yul\":2164:2173   */\n      dup8\n        /* \"#utility.yul\":2160:2182   */\n      add\n        /* \"#utility.yul\":2139:2192   */\n      tag_124\n      jump\t// in\n    tag_191:\n        /* \"#utility.yul\":2129:2192   */\n      swap3\n      pop\n        /* \"#utility.yul\":2084:2202   */\n      pop\n        /* \"#utility.yul\":2241:2243   */\n      0x40\n        /* \"#utility.yul\":2267:2320   */\n      tag_192\n        /* \"#utility.yul\":2312:2319   */\n      dup7\n        /* \"#utility.yul\":2303:2309   */\n      dup3\n        /* \"#utility.yul\":2292:2301   */\n      dup8\n        /* \"#utility.yul\":2288:2310   */\n      add\n        /* \"#utility.yul\":2267:2320   */\n      tag_124\n      jump\t// in\n    tag_192:\n        /* \"#utility.yul\":2257:2320   */\n      swap2\n      pop\n        /* \"#utility.yul\":2212:2330   */\n      pop\n        /* \"#utility.yul\":1718:2337   */\n      swap3\n      pop\n      swap3\n      pop\n      swap3\n      jump\t// out\n        /* \"#utility.yul\":2343:2461   */\n    tag_125:\n        /* \"#utility.yul\":2430:2454   */\n      tag_194\n        /* \"#utility.yul\":2448:2453   */\n      dup2\n        /* \"#utility.yul\":2430:2454   */\n      tag_122\n      jump\t// in\n    tag_194:\n        /* \"#utility.yul\":2425:2428   */\n      dup3\n        /* \"#utility.yul\":2418:2455   */\n      mstore\n        /* \"#utility.yul\":2343:2461   */\n      pop\n      pop\n      jump\t// out\n        /* \"#utility.yul\":2467:2689   */\n    tag_29:\n        /* \"#utility.yul\":2560:2564   */\n      0x00\n        /* \"#utility.yul\":2598:2600   */\n      0x20\n        /* \"#utility.yul\":2587:2596   */\n      dup3\n        /* \"#utility.yul\":2583:2601   */\n      add\n        /* \"#utility.yul\":2575:2601   */\n      swap1\n      pop\n        /* \"#utility.yul\":2611:2682   */\n      tag_196\n        /* \"#utility.yul\":2679:2680   */\n      0x00\n        /* \"#utility.yul\":2668:2677   */\n      dup4\n        /* \"#utility.yul\":2664:2681   */\n      add\n        /* \"#utility.yul\":2655:2661   */\n      dup5\n        /* \"#utility.yul\":2611:2682   */\n      tag_125\n      jump\t// in\n    tag_196:\n        /* \"#utility.yul\":2467:2689   */\n      swap3\n      swap2\n      pop\n      pop\n      jump\t// out\n        /* \"#utility.yul\":2695:2755   */\n    tag_126:\n        /* \"#utility.yul\":2723:2726   */\n      0x00\n        /* \"#utility.yul\":2744:2749   */\n      dup2\n        /* \"#utility.yul\":2737:2749   */\n      swap1\n      pop\n        /* \"#utility.yul\":2695:2755   */\n      swap2\n      swap1\n      pop\n      jump\t// out\n        /* \"#utility.yul\":2761:2903   */\n    tag_127:\n        /* \"#utility.yul\":2811:2820   */\n      0x00\n        /* \"#utility.yul\":2844:2897   */\n      tag_199\n        /* \"#utility.yul\":2862:2896   */\n      tag_200\n        /* \"#utility.yul\":2871:2895   */\n      tag_201\n        /* \"#utility.yul\":2889:2894   */\n      dup5\n        /* \"#utility.yul\":2871:2895   */\n      tag_116\n      jump\t// in\n    tag_201:\n        /* \"#utility.yul\":2862:2896   */\n      tag_126\n      jump\t// in\n    tag_200:\n        /* \"#utility.yul\":2844:2897   */\n      tag_116\n      jump\t// in\n    tag_199:\n        /* \"#utility.yul\":2831:2897   */\n      swap1\n      pop\n        /* \"#utility.yul\":2761:2903   */\n      swap2\n      swap1\n      pop\n      jump\t// out\n        /* \"#utility.yul\":2909:3035   */\n    tag_128:\n        /* \"#utility.yul\":2959:2968   */\n      0x00\n        /* \"#utility.yul\":2992:3029   */\n      tag_203\n        /* \"#utility.yul\":3023:3028   */\n      dup3\n        /* \"#utility.yul\":2992:3029   */\n      tag_127\n      jump\t// in\n    tag_203:\n        /* \"#utility.yul\":2979:3029   */\n      swap1\n      pop\n        /* \"#utility.yul\":2909:3035   */\n      swap2\n      swap1\n      pop\n      jump\t// out\n        /* \"#utility.yul\":3041:3181   */\n    tag_129:\n        /* \"#utility.yul\":3105:3114   */\n      0x00\n        /* \"#utility.yul\":3138:3175   */\n      tag_205\n        /* \"#utility.yul\":3169:3174   */\n      dup3\n        /* \"#utility.yul\":3138:3175   */\n      tag_128\n      jump\t// in\n    tag_205:\n        /* \"#utility.yul\":3125:3175   */\n      swap1\n      pop\n        /* \"#utility.yul\":3041:3181   */\n      swap2\n      swap1\n      pop\n      jump\t// out\n        /* \"#utility.yul\":3187:3346   */\n    tag_130:\n        /* \"#utility.yul\":3288:3339   */\n      tag_207\n        /* \"#utility.yul\":3333:3338   */\n      dup2\n        /* \"#utility.yul\":3288:3339   */\n      tag_129\n      jump\t// in\n    tag_207:\n        /* \"#utility.yul\":3283:3286   */\n      dup3\n        /* \"#utility.yul\":3276:3340   */\n      mstore\n        /* \"#utility.yul\":3187:3346   */\n      pop\n      pop\n      jump\t// out\n        /* \"#utility.yul\":3352:3602   */\n    tag_33:\n        /* \"#utility.yul\":3459:3463   */\n      0x00\n        /* \"#utility.yul\":3497:3499   */\n      0x20\n        /* \"#utility.yul\":3486:3495   */\n      dup3\n        /* \"#utility.yul\":3482:3500   */\n      add\n        /* \"#utility.yul\":3474:3500   */\n      swap1\n      pop\n        /* \"#utility.yul\":3510:3595   */\n      tag_209\n        /* \"#utility.yul\":3592:3593   */\n      0x00\n        /* \"#utility.yul\":3581:3590   */\n      dup4\n        /* \"#utility.yul\":3577:3594   */\n      add\n        /* \"#utility.yul\":3568:3574   */\n      dup5\n        /* \"#utility.yul\":3510:3595   */\n      tag_130\n      jump\t// in\n    tag_209:\n        /* \"#utility.yul\":3352:3602   */\n      swap3\n      swap2\n      pop\n      pop\n      jump\t// out\n        /* \"#utility.yul\":3608:3730   */\n    tag_131:\n        /* \"#utility.yul\":3681:3705   */\n      tag_211\n        /* \"#utility.yul\":3699:3704   */\n      dup2\n        /* \"#utility.yul\":3681:3705   */\n      tag_117\n      jump\t// in\n    tag_211:\n        /* \"#utility.yul\":3674:3679   */\n      dup2\n        /* \"#utility.yul\":3671:3706   */\n      eq\n        /* \"#utility.yul\":3661:3724   */\n      tag_212\n      jumpi\n        /* \"#utility.yul\":3720:3721   */\n      0x00\n        /* \"#utility.yul\":3717:3718   */\n      dup1\n        /* \"#utility.yul\":3710:3722   */\n      revert\n        /* \"#utility.yul\":3661:3724   */\n    tag_212:\n        /* \"#utility.yul\":3608:3730   */\n      pop\n      jump\t// out\n        /* \"#utility.yul\":3736:3875   */\n    tag_132:\n        /* \"#utility.yul\":3782:3787   */\n      0x00\n        /* \"#utility.yul\":3820:3826   */\n      dup2\n        /* \"#utility.yul\":3807:3827   */\n      calldataload\n        /* \"#utility.yul\":3798:3827   */\n      swap1\n      pop\n        /* \"#utility.yul\":3836:3869   */\n      tag_214\n        /* \"#utility.yul\":3863:3868   */\n      dup2\n        /* \"#utility.yul\":3836:3869   */\n      tag_131\n      jump\t// in\n    tag_214:\n        /* \"#utility.yul\":3736:3875   */\n      swap3\n      swap2\n      pop\n      pop\n      jump\t// out\n        /* \"#utility.yul\":3881:4210   */\n    tag_36:\n        /* \"#utility.yul\":3940:3946   */\n      0x00\n        /* \"#utility.yul\":3989:3991   */\n      0x20\n        /* \"#utility.yul\":3977:3986   */\n      dup3\n        /* \"#utility.yul\":3968:3975   */\n      dup5\n        /* \"#utility.yul\":3964:3987   */\n      sub\n        /* \"#utility.yul\":3960:3992   */\n      slt\n        /* \"#utility.yul\":3957:4076   */\n      iszero\n      tag_216\n      jumpi\n        /* \"#utility.yul\":3995:4074   */\n      tag_217\n      tag_120\n      jump\t// in\n    tag_217:\n        /* \"#utility.yul\":3957:4076   */\n    tag_216:\n        /* \"#utility.yul\":4115:4116   */\n      0x00\n        /* \"#utility.yul\":4140:4193   */\n      tag_218\n        /* \"#utility.yul\":4185:4192   */\n      dup5\n        /* \"#utility.yul\":4176:4182   */\n      dup3\n        /* \"#utility.yul\":4165:4174   */\n      dup6\n        /* \"#utility.yul\":4161:4183   */\n      add\n        /* \"#utility.yul\":4140:4193   */\n      tag_132\n      jump\t// in\n    tag_218:\n        /* \"#utility.yul\":4130:4193   */\n      swap2\n      pop\n        /* \"#utility.yul\":4086:4203   */\n      pop\n        /* \"#utility.yul\":3881:4210   */\n      swap3\n      swap2\n      pop\n      pop\n      jump\t// out\n        /* \"#utility.yul\":4216:4658   */\n    tag_39:\n        /* \"#utility.yul\":4365:4369   */\n      0x00\n        /* \"#utility.yul\":4403:4405   */\n      0x60\n        /* \"#utility.yul\":4392:4401   */\n      dup3\n        /* \"#utility.yul\":4388:4406   */\n      add\n        /* \"#utility.yul\":4380:4406   */\n      swap1\n      pop\n        /* \"#utility.yul\":4416:4487   */\n      tag_220\n        /* \"#utility.yul\":4484:4485   */\n      0x00\n        /* \"#utility.yul\":4473:4482   */\n      dup4\n        /* \"#utility.yul\":4469:4486   */\n      add\n        /* \"#utility.yul\":4460:4466   */\n      dup7\n        /* \"#utility.yul\":4416:4487   */\n      tag_125\n      jump\t// in\n    tag_220:\n        /* \"#utility.yul\":4497:4569   */\n      tag_221\n        /* \"#utility.yul\":4565:4567   */\n      0x20\n        /* \"#utility.yul\":4554:4563   */\n      dup4\n        /* \"#utility.yul\":4550:4568   */\n      add\n        /* \"#utility.yul\":4541:4547   */\n      dup6\n        /* \"#utility.yul\":4497:4569   */\n      tag_125\n      jump\t// in\n    tag_221:\n        /* \"#utility.yul\":4579:4651   */\n      tag_222\n        /* \"#utility.yul\":4647:4649   */\n      0x40\n        /* \"#utility.yul\":4636:4645   */\n      dup4\n        /* \"#utility.yul\":4632:4650   */\n      add\n        /* \"#utility.yul\":4623:4629   */\n      dup5\n        /* \"#utility.yul\":4579:4651   */\n      tag_125\n      jump\t// in\n    tag_222:\n        /* \"#utility.yul\":4216:4658   */\n      swap5\n      swap4\n      pop\n      pop\n      pop\n      pop\n      jump\t// out\n        /* \"#utility.yul\":4664:4809   */\n    tag_133:\n        /* \"#utility.yul\":4733:4742   */\n      0x00\n        /* \"#utility.yul\":4766:4803   */\n      tag_224\n        /* \"#utility.yul\":4797:4802   */\n      dup3\n        /* \"#utility.yul\":4766:4803   */\n      tag_128\n      jump\t// in\n    tag_224:\n        /* \"#utility.yul\":4753:4803   */\n      swap1\n      pop\n        /* \"#utility.yul\":4664:4809   */\n      swap2\n      swap1\n      pop\n      jump\t// out\n        /* \"#utility.yul\":4815:4984   */\n    tag_134:\n        /* \"#utility.yul\":4921:4977   */\n      tag_226\n        /* \"#utility.yul\":4971:4976   */\n      dup2\n        /* \"#utility.yul\":4921:4977   */\n      tag_133\n      jump\t// in\n    tag_226:\n        /* \"#utility.yul\":4916:4919   */\n      dup3\n        /* \"#utility.yul\":4909:4978   */\n      mstore\n        /* \"#utility.yul\":4815:4984   */\n      pop\n      pop\n      jump\t// out\n        /* \"#utility.yul\":4990:5250   */\n    tag_43:\n        /* \"#utility.yul\":5102:5106   */\n      0x00\n        /* \"#utility.yul\":5140:5142   */\n      0x20\n        /* \"#utility.yul\":5129:5138   */\n      dup3\n        /* \"#utility.yul\":5125:5143   */\n      add\n        /* \"#utility.yul\":5117:5143   */\n      swap1\n      pop\n        /* \"#utility.yul\":5153:5243   */\n      tag_228\n        /* \"#utility.yul\":5240:5241   */\n      0x00\n        /* \"#utility.yul\":5229:5238   */\n      dup4\n        /* \"#utility.yul\":5225:5242   */\n      add\n        /* \"#utility.yul\":5216:5222   */\n      dup5\n        /* \"#utility.yul\":5153:5243   */\n      tag_134\n      jump\t// in\n    tag_228:\n        /* \"#utility.yul\":4990:5250   */\n      swap3\n      swap2\n      pop\n      pop\n      jump\t// out\n        /* \"#utility.yul\":5256:5436   */\n    tag_135:\n        /* \"#utility.yul\":5304:5381   */\n      0x4e487b7100000000000000000000000000000000000000000000000000000000\n        /* \"#utility.yul\":5301:5302   */\n      0x00\n        /* \"#utility.yul\":5294:5382   */\n      mstore\n        /* \"#utility.yul\":5401:5405   */\n      0x11\n        /* \"#utility.yul\":5398:5399   */\n      0x04\n        /* \"#utility.yul\":5391:5406   */\n      mstore\n        /* \"#utility.yul\":5425:5429   */\n      0x24\n        /* \"#utility.yul\":5422:5423   */\n      0x00\n        /* \"#utility.yul\":5415:5430   */\n      revert\n        /* \"#utility.yul\":5442:5636   */\n    tag_46:\n        /* \"#utility.yul\":5482:5486   */\n      0x00\n        /* \"#utility.yul\":5502:5522   */\n      tag_231\n        /* \"#utility.yul\":5520:5521   */\n      dup3\n        /* \"#utility.yul\":5502:5522   */\n      tag_122\n      jump\t// in\n    tag_231:\n        /* \"#utility.yul\":5497:5522   */\n      swap2\n      pop\n        /* \"#utility.yul\":5536:5556   */\n      tag_232\n        /* \"#utility.yul\":5554:5555   */\n      dup4\n        /* \"#utility.yul\":5536:5556   */\n      tag_122\n      jump\t// in\n    tag_232:\n        /* \"#utility.yul\":5531:5556   */\n      swap3\n      pop\n        /* \"#utility.yul\":5580:5581   */\n      dup3\n        /* \"#utility.yul\":5577:5578   */\n      dup3\n        /* \"#utility.yul\":5573:5582   */\n      sub\n        /* \"#utility.yul\":5565:5582   */\n      swap1\n      pop\n        /* \"#utility.yul\":5604:5605   */\n      dup2\n        /* \"#utility.yul\":5598:5602   */\n      dup2\n        /* \"#utility.yul\":5595:5606   */\n      gt\n        /* \"#utility.yul\":5592:5629   */\n      iszero\n      tag_233\n      jumpi\n        /* \"#utility.yul\":5609:5627   */\n      tag_234\n      tag_135\n      jump\t// in\n    tag_234:\n        /* \"#utility.yul\":5592:5629   */\n    tag_233:\n        /* \"#utility.yul\":5442:5636   */\n      swap3\n      swap2\n      pop\n      pop\n      jump\t// out\n        /* \"#utility.yul\":5642:5822   */\n    tag_54:\n        /* \"#utility.yul\":5690:5767   */\n      0x4e487b7100000000000000000000000000000000000000000000000000000000\n        /* \"#utility.yul\":5687:5688   */\n      0x00\n        /* \"#utility.yul\":5680:5768   */\n      mstore\n        /* \"#utility.yul\":5787:5791   */\n      0x32\n        /* \"#utility.yul\":5784:5785   */\n      0x04\n        /* \"#utility.yul\":5777:5792   */\n      mstore\n        /* \"#utility.yul\":5811:5815   */\n      0x24\n        /* \"#utility.yul\":5808:5809   */\n      0x00\n        /* \"#utility.yul\":5801:5816   */\n      revert\n        /* \"#utility.yul\":5828:5933   */\n    tag_136:\n        /* \"#utility.yul\":5864:5871   */\n      0x00\n        /* \"#utility.yul\":5904:5926   */\n      0xffffffffffffffffffff\n        /* \"#utility.yul\":5897:5902   */\n      dup3\n        /* \"#utility.yul\":5893:5927   */\n      and\n        /* \"#utility.yul\":5882:5927   */\n      swap1\n      pop\n        /* \"#utility.yul\":5828:5933   */\n      swap2\n      swap1\n      pop\n      jump\t// out\n        /* \"#utility.yul\":5939:6059   */\n    tag_137:\n        /* \"#utility.yul\":6011:6034   */\n      tag_238\n        /* \"#utility.yul\":6028:6033   */\n      dup2\n        /* \"#utility.yul\":6011:6034   */\n      tag_136\n      jump\t// in\n    tag_238:\n        /* \"#utility.yul\":6004:6009   */\n      dup2\n        /* \"#utility.yul\":6001:6035   */\n      eq\n        /* \"#utility.yul\":5991:6053   */\n      tag_239\n      jumpi\n        /* \"#utility.yul\":6049:6050   */\n      0x00\n        /* \"#utility.yul\":6046:6047   */\n      dup1\n        /* \"#utility.yul\":6039:6051   */\n      revert\n        /* \"#utility.yul\":5991:6053   */\n    tag_239:\n        /* \"#utility.yul\":5939:6059   */\n      pop\n      jump\t// out\n        /* \"#utility.yul\":6065:6206   */\n    tag_138:\n        /* \"#utility.yul\":6121:6126   */\n      0x00\n        /* \"#utility.yul\":6152:6158   */\n      dup2\n        /* \"#utility.yul\":6146:6159   */\n      mload\n        /* \"#utility.yul\":6137:6159   */\n      swap1\n      pop\n        /* \"#utility.yul\":6168:6200   */\n      tag_241\n        /* \"#utility.yul\":6194:6199   */\n      dup2\n        /* \"#utility.yul\":6168:6200   */\n      tag_137\n      jump\t// in\n    tag_241:\n        /* \"#utility.yul\":6065:6206   */\n      swap3\n      swap2\n      pop\n      pop\n      jump\t// out\n        /* \"#utility.yul\":6212:6288   */\n    tag_139:\n        /* \"#utility.yul\":6248:6255   */\n      0x00\n        /* \"#utility.yul\":6277:6282   */\n      dup2\n        /* \"#utility.yul\":6266:6282   */\n      swap1\n      pop\n        /* \"#utility.yul\":6212:6288   */\n      swap2\n      swap1\n      pop\n      jump\t// out\n        /* \"#utility.yul\":6294:6414   */\n    tag_140:\n        /* \"#utility.yul\":6366:6389   */\n      tag_244\n        /* \"#utility.yul\":6383:6388   */\n      dup2\n        /* \"#utility.yul\":6366:6389   */\n      tag_139\n      jump\t// in\n    tag_244:\n        /* \"#utility.yul\":6359:6364   */\n      dup2\n        /* \"#utility.yul\":6356:6390   */\n      eq\n        /* \"#utility.yul\":6346:6408   */\n      tag_245\n      jumpi\n        /* \"#utility.yul\":6404:6405   */\n      0x00\n        /* \"#utility.yul\":6401:6402   */\n      dup1\n        /* \"#utility.yul\":6394:6406   */\n      revert\n        /* \"#utility.yul\":6346:6408   */\n    tag_245:\n        /* \"#utility.yul\":6294:6414   */\n      pop\n      jump\t// out\n        /* \"#utility.yul\":6420:6561   */\n    tag_141:\n        /* \"#utility.yul\":6476:6481   */\n      0x00\n        /* \"#utility.yul\":6507:6513   */\n      dup2\n        /* \"#utility.yul\":6501:6514   */\n      mload\n        /* \"#utility.yul\":6492:6514   */\n      swap1\n      pop\n        /* \"#utility.yul\":6523:6555   */\n      tag_247\n        /* \"#utility.yul\":6549:6554   */\n      dup2\n        /* \"#utility.yul\":6523:6555   */\n      tag_140\n      jump\t// in\n    tag_247:\n        /* \"#utility.yul\":6420:6561   */\n      swap3\n      swap2\n      pop\n      pop\n      jump\t// out\n        /* \"#utility.yul\":6567:6710   */\n    tag_142:\n        /* \"#utility.yul\":6624:6629   */\n      0x00\n        /* \"#utility.yul\":6655:6661   */\n      dup2\n        /* \"#utility.yul\":6649:6662   */\n      mload\n        /* \"#utility.yul\":6640:6662   */\n      swap1\n      pop\n        /* \"#utility.yul\":6671:6704   */\n      tag_249\n        /* \"#utility.yul\":6698:6703   */\n      dup2\n        /* \"#utility.yul\":6671:6704   */\n      tag_123\n      jump\t// in\n    tag_249:\n        /* \"#utility.yul\":6567:6710   */\n      swap3\n      swap2\n      pop\n      pop\n      jump\t// out\n        /* \"#utility.yul\":6716:7687   */\n    tag_69:\n        /* \"#utility.yul\":6819:6825   */\n      0x00\n        /* \"#utility.yul\":6827:6833   */\n      dup1\n        /* \"#utility.yul\":6835:6841   */\n      0x00\n        /* \"#utility.yul\":6843:6849   */\n      dup1\n        /* \"#utility.yul\":6851:6857   */\n      0x00\n        /* \"#utility.yul\":6900:6903   */\n      0xa0\n        /* \"#utility.yul\":6888:6897   */\n      dup7\n        /* \"#utility.yul\":6879:6886   */\n      dup9\n        /* \"#utility.yul\":6875:6898   */\n      sub\n        /* \"#utility.yul\":6871:6904   */\n      slt\n        /* \"#utility.yul\":6868:6988   */\n      iszero\n      tag_251\n      jumpi\n        /* \"#utility.yul\":6907:6986   */\n      tag_252\n      tag_120\n      jump\t// in\n    tag_252:\n        /* \"#utility.yul\":6868:6988   */\n    tag_251:\n        /* \"#utility.yul\":7027:7028   */\n      0x00\n        /* \"#utility.yul\":7052:7115   */\n      tag_253\n        /* \"#utility.yul\":7107:7114   */\n      dup9\n        /* \"#utility.yul\":7098:7104   */\n      dup3\n        /* \"#utility.yul\":7087:7096   */\n      dup10\n        /* \"#utility.yul\":7083:7105   */\n      add\n        /* \"#utility.yul\":7052:7115   */\n      tag_138\n      jump\t// in\n    tag_253:\n        /* \"#utility.yul\":7042:7115   */\n      swap6\n      pop\n        /* \"#utility.yul\":6998:7125   */\n      pop\n        /* \"#utility.yul\":7164:7166   */\n      0x20\n        /* \"#utility.yul\":7190:7253   */\n      tag_254\n        /* \"#utility.yul\":7245:7252   */\n      dup9\n        /* \"#utility.yul\":7236:7242   */\n      dup3\n        /* \"#utility.yul\":7225:7234   */\n      dup10\n        /* \"#utility.yul\":7221:7243   */\n      add\n        /* \"#utility.yul\":7190:7253   */\n      tag_141\n      jump\t// in\n    tag_254:\n        /* \"#utility.yul\":7180:7253   */\n      swap5\n      pop\n        /* \"#utility.yul\":7135:7263   */\n      pop\n        /* \"#utility.yul\":7302:7304   */\n      0x40\n        /* \"#utility.yul\":7328:7392   */\n      tag_255\n        /* \"#utility.yul\":7384:7391   */\n      dup9\n        /* \"#utility.yul\":7375:7381   */\n      dup3\n        /* \"#utility.yul\":7364:7373   */\n      dup10\n        /* \"#utility.yul\":7360:7382   */\n      add\n        /* \"#utility.yul\":7328:7392   */\n      tag_142\n      jump\t// in\n    tag_255:\n        /* \"#utility.yul\":7318:7392   */\n      swap4\n      pop\n        /* \"#utility.yul\":7273:7402   */\n      pop\n        /* \"#utility.yul\":7441:7443   */\n      0x60\n        /* \"#utility.yul\":7467:7531   */\n      tag_256\n        /* \"#utility.yul\":7523:7530   */\n      dup9\n        /* \"#utility.yul\":7514:7520   */\n      dup3\n        /* \"#utility.yul\":7503:7512   */\n      dup10\n        /* \"#utility.yul\":7499:7521   */\n      add\n        /* \"#utility.yul\":7467:7531   */\n      tag_142\n      jump\t// in\n    tag_256:\n        /* \"#utility.yul\":7457:7531   */\n      swap3\n      pop\n        /* \"#utility.yul\":7412:7541   */\n      pop\n        /* \"#utility.yul\":7580:7583   */\n      0x80\n        /* \"#utility.yul\":7607:7670   */\n      tag_257\n        /* \"#utility.yul\":7662:7669   */\n      dup9\n        /* \"#utility.yul\":7653:7659   */\n      dup3\n        /* \"#utility.yul\":7642:7651   */\n      dup10\n        /* \"#utility.yul\":7638:7660   */\n      add\n        /* \"#utility.yul\":7607:7670   */\n      tag_138\n      jump\t// in\n    tag_257:\n        /* \"#utility.yul\":7597:7670   */\n      swap2\n      pop\n        /* \"#utility.yul\":7551:7680   */\n      pop\n        /* \"#utility.yul\":6716:7687   */\n      swap3\n      swap6\n      pop\n      swap3\n      swap6\n      swap1\n      swap4\n      pop\n      jump\t// out\n        /* \"#utility.yul\":7693:8103   */\n    tag_71:\n        /* \"#utility.yul\":7733:7740   */\n      0x00\n        /* \"#utility.yul\":7756:7776   */\n      tag_259\n        /* \"#utility.yul\":7774:7775   */\n      dup3\n        /* \"#utility.yul\":7756:7776   */\n      tag_122\n      jump\t// in\n    tag_259:\n        /* \"#utility.yul\":7751:7776   */\n      swap2\n      pop\n        /* \"#utility.yul\":7790:7810   */\n      tag_260\n        /* \"#utility.yul\":7808:7809   */\n      dup4\n        /* \"#utility.yul\":7790:7810   */\n      tag_122\n      jump\t// in\n    tag_260:\n        /* \"#utility.yul\":7785:7810   */\n      swap3\n      pop\n        /* \"#utility.yul\":7845:7846   */\n      dup3\n        /* \"#utility.yul\":7842:7843   */\n      dup3\n        /* \"#utility.yul\":7838:7847   */\n      mul\n        /* \"#utility.yul\":7867:7897   */\n      tag_261\n        /* \"#utility.yul\":7885:7896   */\n      dup2\n        /* \"#utility.yul\":7867:7897   */\n      tag_122\n      jump\t// in\n    tag_261:\n        /* \"#utility.yul\":7856:7897   */\n      swap2\n      pop\n        /* \"#utility.yul\":8046:8047   */\n      dup3\n        /* \"#utility.yul\":8037:8044   */\n      dup3\n        /* \"#utility.yul\":8033:8048   */\n      div\n        /* \"#utility.yul\":8030:8031   */\n      dup5\n        /* \"#utility.yul\":8027:8049   */\n      eq\n        /* \"#utility.yul\":8007:8008   */\n      dup4\n        /* \"#utility.yul\":8000:8009   */\n      iszero\n        /* \"#utility.yul\":7980:8063   */\n      or\n        /* \"#utility.yul\":7957:8096   */\n      tag_262\n      jumpi\n        /* \"#utility.yul\":8076:8094   */\n      tag_263\n      tag_135\n      jump\t// in\n    tag_263:\n        /* \"#utility.yul\":7957:8096   */\n    tag_262:\n        /* \"#utility.yul\":7741:8103   */\n      pop\n        /* \"#utility.yul\":7693:8103   */\n      swap3\n      swap2\n      pop\n      pop\n      jump\t// out\n        /* \"#utility.yul\":8109:8551   */\n    tag_74:\n        /* \"#utility.yul\":8258:8262   */\n      0x00\n        /* \"#utility.yul\":8296:8298   */\n      0x60\n        /* \"#utility.yul\":8285:8294   */\n      dup3\n        /* \"#utility.yul\":8281:8299   */\n      add\n        /* \"#utility.yul\":8273:8299   */\n      swap1\n      pop\n        /* \"#utility.yul\":8309:8380   */\n      tag_265\n        /* \"#utility.yul\":8377:8378   */\n      0x00\n        /* \"#utility.yul\":8366:8375   */\n      dup4\n        /* \"#utility.yul\":8362:8379   */\n      add\n        /* \"#utility.yul\":8353:8359   */\n      dup7\n        /* \"#utility.yul\":8309:8380   */\n      tag_118\n      jump\t// in\n    tag_265:\n        /* \"#utility.yul\":8390:8462   */\n      tag_266\n        /* \"#utility.yul\":8458:8460   */\n      0x20\n        /* \"#utility.yul\":8447:8456   */\n      dup4\n        /* \"#utility.yul\":8443:8461   */\n      add\n        /* \"#utility.yul\":8434:8440   */\n      dup6\n        /* \"#utility.yul\":8390:8462   */\n      tag_125\n      jump\t// in\n    tag_266:\n        /* \"#utility.yul\":8472:8544   */\n      tag_267\n        /* \"#utility.yul\":8540:8542   */\n      0x40\n        /* \"#utility.yul\":8529:8538   */\n      dup4\n        /* \"#utility.yul\":8525:8543   */\n      add\n        /* \"#utility.yul\":8516:8522   */\n      dup5\n        /* \"#utility.yul\":8472:8544   */\n      tag_118\n      jump\t// in\n    tag_267:\n        /* \"#utility.yul\":8109:8551   */\n      swap5\n      swap4\n      pop\n      pop\n      pop\n      pop\n      jump\t// out\n        /* \"#utility.yul\":8557:8655   */\n    tag_143:\n        /* \"#utility.yul\":8608:8614   */\n      0x00\n        /* \"#utility.yul\":8642:8647   */\n      dup2\n        /* \"#utility.yul\":8636:8648   */\n      mload\n        /* \"#utility.yul\":8626:8648   */\n      swap1\n      pop\n        /* \"#utility.yul\":8557:8655   */\n      swap2\n      swap1\n      pop\n      jump\t// out\n        /* \"#utility.yul\":8661:8808   */\n    tag_144:\n        /* \"#utility.yul\":8762:8773   */\n      0x00\n        /* \"#utility.yul\":8799:8802   */\n      dup2\n        /* \"#utility.yul\":8784:8802   */\n      swap1\n      pop\n        /* \"#utility.yul\":8661:8808   */\n      swap3\n      swap2\n      pop\n      pop\n      jump\t// out\n        /* \"#utility.yul\":8814:8953   */\n    tag_145:\n        /* \"#utility.yul\":8903:8909   */\n      dup3\n        /* \"#utility.yul\":8898:8901   */\n      dup2\n        /* \"#utility.yul\":8893:8896   */\n      dup4\n        /* \"#utility.yul\":8887:8910   */\n      mcopy\n        /* \"#utility.yul\":8944:8945   */\n      0x00\n        /* \"#utility.yul\":8935:8941   */\n      dup4\n        /* \"#utility.yul\":8930:8933   */\n      dup4\n        /* \"#utility.yul\":8926:8942   */\n      add\n        /* \"#utility.yul\":8919:8946   */\n      mstore\n        /* \"#utility.yul\":8814:8953   */\n      pop\n      pop\n      pop\n      jump\t// out\n        /* \"#utility.yul\":8959:9345   */\n    tag_146:\n        /* \"#utility.yul\":9063:9066   */\n      0x00\n        /* \"#utility.yul\":9091:9129   */\n      tag_272\n        /* \"#utility.yul\":9123:9128   */\n      dup3\n        /* \"#utility.yul\":9091:9129   */\n      tag_143\n      jump\t// in\n    tag_272:\n        /* \"#utility.yul\":9145:9233   */\n      tag_273\n        /* \"#utility.yul\":9226:9232   */\n      dup2\n        /* \"#utility.yul\":9221:9224   */\n      dup6\n        /* \"#utility.yul\":9145:9233   */\n      tag_144\n      jump\t// in\n    tag_273:\n        /* \"#utility.yul\":9138:9233   */\n      swap4\n      pop\n        /* \"#utility.yul\":9242:9307   */\n      tag_274\n        /* \"#utility.yul\":9300:9306   */\n      dup2\n        /* \"#utility.yul\":9295:9298   */\n      dup6\n        /* \"#utility.yul\":9288:9292   */\n      0x20\n        /* \"#utility.yul\":9281:9286   */\n      dup7\n        /* \"#utility.yul\":9277:9293   */\n      add\n        /* \"#utility.yul\":9242:9307   */\n      tag_145\n      jump\t// in\n    tag_274:\n        /* \"#utility.yul\":9332:9338   */\n      dup1\n        /* \"#utility.yul\":9327:9330   */\n      dup5\n        /* \"#utility.yul\":9323:9339   */\n      add\n        /* \"#utility.yul\":9316:9339   */\n      swap2\n      pop\n        /* \"#utility.yul\":9067:9345   */\n      pop\n        /* \"#utility.yul\":8959:9345   */\n      swap3\n      swap2\n      pop\n      pop\n      jump\t// out\n        /* \"#utility.yul\":9351:9622   */\n    tag_76:\n        /* \"#utility.yul\":9481:9484   */\n      0x00\n        /* \"#utility.yul\":9503:9596   */\n      tag_276\n        /* \"#utility.yul\":9592:9595   */\n      dup3\n        /* \"#utility.yul\":9583:9589   */\n      dup5\n        /* \"#utility.yul\":9503:9596   */\n      tag_146\n      jump\t// in\n    tag_276:\n        /* \"#utility.yul\":9496:9596   */\n      swap2\n      pop\n        /* \"#utility.yul\":9613:9616   */\n      dup2\n        /* \"#utility.yul\":9606:9616   */\n      swap1\n      pop\n        /* \"#utility.yul\":9351:9622   */\n      swap3\n      swap2\n      pop\n      pop\n      jump\t// out\n        /* \"#utility.yul\":9628:9797   */\n    tag_147:\n        /* \"#utility.yul\":9712:9723   */\n      0x00\n        /* \"#utility.yul\":9746:9752   */\n      dup3\n        /* \"#utility.yul\":9741:9744   */\n      dup3\n        /* \"#utility.yul\":9734:9753   */\n      mstore\n        /* \"#utility.yul\":9786:9790   */\n      0x20\n        /* \"#utility.yul\":9781:9784   */\n      dup3\n        /* \"#utility.yul\":9777:9791   */\n      add\n        /* \"#utility.yul\":9762:9791   */\n      swap1\n      pop\n        /* \"#utility.yul\":9628:9797   */\n      swap3\n      swap2\n      pop\n      pop\n      jump\t// out\n        /* \"#utility.yul\":9803:9980   */\n    tag_148:\n        /* \"#utility.yul\":9943:9972   */\n      0x5769746864726177616c2066726f6d2041617665206661696c65640000000000\n        /* \"#utility.yul\":9939:9940   */\n      0x00\n        /* \"#utility.yul\":9931:9937   */\n      dup3\n        /* \"#utility.yul\":9927:9941   */\n      add\n        /* \"#utility.yul\":9920:9973   */\n      mstore\n        /* \"#utility.yul\":9803:9980   */\n      pop\n      jump\t// out\n        /* \"#utility.yul\":9986:10352   */\n    tag_149:\n        /* \"#utility.yul\":10128:10131   */\n      0x00\n        /* \"#utility.yul\":10149:10216   */\n      tag_280\n        /* \"#utility.yul\":10213:10215   */\n      0x1b\n        /* \"#utility.yul\":10208:10211   */\n      dup4\n        /* \"#utility.yul\":10149:10216   */\n      tag_147\n      jump\t// in\n    tag_280:\n        /* \"#utility.yul\":10142:10216   */\n      swap2\n      pop\n        /* \"#utility.yul\":10225:10318   */\n      tag_281\n        /* \"#utility.yul\":10314:10317   */\n      dup3\n        /* \"#utility.yul\":10225:10318   */\n      tag_148\n      jump\t// in\n    tag_281:\n        /* \"#utility.yul\":10343:10345   */\n      0x20\n        /* \"#utility.yul\":10338:10341   */\n      dup3\n        /* \"#utility.yul\":10334:10346   */\n      add\n        /* \"#utility.yul\":10327:10346   */\n      swap1\n      pop\n        /* \"#utility.yul\":9986:10352   */\n      swap2\n      swap1\n      pop\n      jump\t// out\n        /* \"#utility.yul\":10358:10777   */\n    tag_82:\n        /* \"#utility.yul\":10524:10528   */\n      0x00\n        /* \"#utility.yul\":10562:10564   */\n      0x20\n        /* \"#utility.yul\":10551:10560   */\n      dup3\n        /* \"#utility.yul\":10547:10565   */\n      add\n        /* \"#utility.yul\":10539:10565   */\n      swap1\n      pop\n        /* \"#utility.yul\":10611:10620   */\n      dup2\n        /* \"#utility.yul\":10605:10609   */\n      dup2\n        /* \"#utility.yul\":10601:10621   */\n      sub\n        /* \"#utility.yul\":10597:10598   */\n      0x00\n        /* \"#utility.yul\":10586:10595   */\n      dup4\n        /* \"#utility.yul\":10582:10599   */\n      add\n        /* \"#utility.yul\":10575:10622   */\n      mstore\n        /* \"#utility.yul\":10639:10770   */\n      tag_283\n        /* \"#utility.yul\":10765:10769   */\n      dup2\n        /* \"#utility.yul\":10639:10770   */\n      tag_149\n      jump\t// in\n    tag_283:\n        /* \"#utility.yul\":10631:10770   */\n      swap1\n      pop\n        /* \"#utility.yul\":10358:10777   */\n      swap2\n      swap1\n      pop\n      jump\t// out\n        /* \"#utility.yul\":10783:10891   */\n    tag_150:\n        /* \"#utility.yul\":10860:10884   */\n      tag_285\n        /* \"#utility.yul\":10878:10883   */\n      dup2\n        /* \"#utility.yul\":10860:10884   */\n      tag_117\n      jump\t// in\n    tag_285:\n        /* \"#utility.yul\":10855:10858   */\n      dup3\n        /* \"#utility.yul\":10848:10885   */\n      mstore\n        /* \"#utility.yul\":10783:10891   */\n      pop\n      pop\n      jump\t// out\n        /* \"#utility.yul\":10897:11002   */\n    tag_151:\n        /* \"#utility.yul\":10972:10995   */\n      tag_287\n        /* \"#utility.yul\":10989:10994   */\n      dup2\n        /* \"#utility.yul\":10972:10995   */\n      tag_114\n      jump\t// in\n    tag_287:\n        /* \"#utility.yul\":10967:10970   */\n      dup3\n        /* \"#utility.yul\":10960:10996   */\n      mstore\n        /* \"#utility.yul\":10897:11002   */\n      pop\n      pop\n      jump\t// out\n        /* \"#utility.yul\":11008:11116   */\n    tag_152:\n        /* \"#utility.yul\":11085:11109   */\n      tag_289\n        /* \"#utility.yul\":11103:11108   */\n      dup2\n        /* \"#utility.yul\":11085:11109   */\n      tag_122\n      jump\t// in\n    tag_289:\n        /* \"#utility.yul\":11080:11083   */\n      dup3\n        /* \"#utility.yul\":11073:11110   */\n      mstore\n        /* \"#utility.yul\":11008:11116   */\n      pop\n      pop\n      jump\t// out\n        /* \"#utility.yul\":11122:11230   */\n    tag_153:\n        /* \"#utility.yul\":11199:11223   */\n      tag_291\n        /* \"#utility.yul\":11217:11222   */\n      dup2\n        /* \"#utility.yul\":11199:11223   */\n      tag_116\n      jump\t// in\n    tag_291:\n        /* \"#utility.yul\":11194:11197   */\n      dup3\n        /* \"#utility.yul\":11187:11224   */\n      mstore\n        /* \"#utility.yul\":11122:11230   */\n      pop\n      pop\n      jump\t// out\n        /* \"#utility.yul\":11330:12951   */\n    tag_154:\n        /* \"#utility.yul\":11503:11509   */\n      0x0100\n        /* \"#utility.yul\":11498:11501   */\n      dup3\n        /* \"#utility.yul\":11494:11510   */\n      add\n        /* \"#utility.yul\":11595:11599   */\n      0x00\n        /* \"#utility.yul\":11588:11593   */\n      dup3\n        /* \"#utility.yul\":11584:11600   */\n      add\n        /* \"#utility.yul\":11578:11601   */\n      mload\n        /* \"#utility.yul\":11614:11677   */\n      tag_293\n        /* \"#utility.yul\":11671:11675   */\n      0x00\n        /* \"#utility.yul\":11666:11669   */\n      dup6\n        /* \"#utility.yul\":11662:11676   */\n      add\n        /* \"#utility.yul\":11648:11660   */\n      dup3\n        /* \"#utility.yul\":11614:11677   */\n      tag_150\n      jump\t// in\n    tag_293:\n        /* \"#utility.yul\":11520:11687   */\n      pop\n        /* \"#utility.yul\":11773:11777   */\n      0x20\n        /* \"#utility.yul\":11766:11771   */\n      dup3\n        /* \"#utility.yul\":11762:11778   */\n      add\n        /* \"#utility.yul\":11756:11779   */\n      mload\n        /* \"#utility.yul\":11792:11855   */\n      tag_294\n        /* \"#utility.yul\":11849:11853   */\n      0x20\n        /* \"#utility.yul\":11844:11847   */\n      dup6\n        /* \"#utility.yul\":11840:11854   */\n      add\n        /* \"#utility.yul\":11826:11838   */\n      dup3\n        /* \"#utility.yul\":11792:11855   */\n      tag_150\n      jump\t// in\n    tag_294:\n        /* \"#utility.yul\":11697:11865   */\n      pop\n        /* \"#utility.yul\":11946:11950   */\n      0x40\n        /* \"#utility.yul\":11939:11944   */\n      dup3\n        /* \"#utility.yul\":11935:11951   */\n      add\n        /* \"#utility.yul\":11929:11952   */\n      mload\n        /* \"#utility.yul\":11965:12026   */\n      tag_295\n        /* \"#utility.yul\":12020:12024   */\n      0x40\n        /* \"#utility.yul\":12015:12018   */\n      dup6\n        /* \"#utility.yul\":12011:12025   */\n      add\n        /* \"#utility.yul\":11997:12009   */\n      dup3\n        /* \"#utility.yul\":11965:12026   */\n      tag_151\n      jump\t// in\n    tag_295:\n        /* \"#utility.yul\":11875:12036   */\n      pop\n        /* \"#utility.yul\":12123:12127   */\n      0x60\n        /* \"#utility.yul\":12116:12121   */\n      dup3\n        /* \"#utility.yul\":12112:12128   */\n      add\n        /* \"#utility.yul\":12106:12129   */\n      mload\n        /* \"#utility.yul\":12142:12205   */\n      tag_296\n        /* \"#utility.yul\":12199:12203   */\n      0x60\n        /* \"#utility.yul\":12194:12197   */\n      dup6\n        /* \"#utility.yul\":12190:12204   */\n      add\n        /* \"#utility.yul\":12176:12188   */\n      dup3\n        /* \"#utility.yul\":12142:12205   */\n      tag_150\n      jump\t// in\n    tag_296:\n        /* \"#utility.yul\":12046:12215   */\n      pop\n        /* \"#utility.yul\":12301:12305   */\n      0x80\n        /* \"#utility.yul\":12294:12299   */\n      dup3\n        /* \"#utility.yul\":12290:12306   */\n      add\n        /* \"#utility.yul\":12284:12307   */\n      mload\n        /* \"#utility.yul\":12320:12383   */\n      tag_297\n        /* \"#utility.yul\":12377:12381   */\n      0x80\n        /* \"#utility.yul\":12372:12375   */\n      dup6\n        /* \"#utility.yul\":12368:12382   */\n      add\n        /* \"#utility.yul\":12354:12366   */\n      dup3\n        /* \"#utility.yul\":12320:12383   */\n      tag_152\n      jump\t// in\n    tag_297:\n        /* \"#utility.yul\":12225:12393   */\n      pop\n        /* \"#utility.yul\":12479:12483   */\n      0xa0\n        /* \"#utility.yul\":12472:12477   */\n      dup3\n        /* \"#utility.yul\":12468:12484   */\n      add\n        /* \"#utility.yul\":12462:12485   */\n      mload\n        /* \"#utility.yul\":12498:12561   */\n      tag_298\n        /* \"#utility.yul\":12555:12559   */\n      0xa0\n        /* \"#utility.yul\":12550:12553   */\n      dup6\n        /* \"#utility.yul\":12546:12560   */\n      add\n        /* \"#utility.yul\":12532:12544   */\n      dup3\n        /* \"#utility.yul\":12498:12561   */\n      tag_152\n      jump\t// in\n    tag_298:\n        /* \"#utility.yul\":12403:12571   */\n      pop\n        /* \"#utility.yul\":12665:12669   */\n      0xc0\n        /* \"#utility.yul\":12658:12663   */\n      dup3\n        /* \"#utility.yul\":12654:12670   */\n      add\n        /* \"#utility.yul\":12648:12671   */\n      mload\n        /* \"#utility.yul\":12684:12747   */\n      tag_299\n        /* \"#utility.yul\":12741:12745   */\n      0xc0\n        /* \"#utility.yul\":12736:12739   */\n      dup6\n        /* \"#utility.yul\":12732:12746   */\n      add\n        /* \"#utility.yul\":12718:12730   */\n      dup3\n        /* \"#utility.yul\":12684:12747   */\n      tag_152\n      jump\t// in\n    tag_299:\n        /* \"#utility.yul\":12581:12757   */\n      pop\n        /* \"#utility.yul\":12852:12856   */\n      0xe0\n        /* \"#utility.yul\":12845:12850   */\n      dup3\n        /* \"#utility.yul\":12841:12857   */\n      add\n        /* \"#utility.yul\":12835:12858   */\n      mload\n        /* \"#utility.yul\":12871:12934   */\n      tag_300\n        /* \"#utility.yul\":12928:12932   */\n      0xe0\n        /* \"#utility.yul\":12923:12926   */\n      dup6\n        /* \"#utility.yul\":12919:12933   */\n      add\n        /* \"#utility.yul\":12905:12917   */\n      dup3\n        /* \"#utility.yul\":12871:12934   */\n      tag_153\n      jump\t// in\n    tag_300:\n        /* \"#utility.yul\":12767:12944   */\n      pop\n        /* \"#utility.yul\":11472:12951   */\n      pop\n        /* \"#utility.yul\":11330:12951   */\n      pop\n      pop\n      jump\t// out\n        /* \"#utility.yul\":12957:13332   */\n    tag_84:\n        /* \"#utility.yul\":13126:13130   */\n      0x00\n        /* \"#utility.yul\":13164:13167   */\n      0x0100\n        /* \"#utility.yul\":13153:13162   */\n      dup3\n        /* \"#utility.yul\":13149:13168   */\n      add\n        /* \"#utility.yul\":13141:13168   */\n      swap1\n      pop\n        /* \"#utility.yul\":13178:13325   */\n      tag_302\n        /* \"#utility.yul\":13322:13323   */\n      0x00\n        /* \"#utility.yul\":13311:13320   */\n      dup4\n        /* \"#utility.yul\":13307:13324   */\n      add\n        /* \"#utility.yul\":13298:13304   */\n      dup5\n        /* \"#utility.yul\":13178:13325   */\n      tag_154\n      jump\t// in\n    tag_302:\n        /* \"#utility.yul\":12957:13332   */\n      swap3\n      swap2\n      pop\n      pop\n      jump\t// out\n        /* \"#utility.yul\":13338:13689   */\n    tag_88:\n        /* \"#utility.yul\":13408:13414   */\n      0x00\n        /* \"#utility.yul\":13457:13459   */\n      0x20\n        /* \"#utility.yul\":13445:13454   */\n      dup3\n        /* \"#utility.yul\":13436:13443   */\n      dup5\n        /* \"#utility.yul\":13432:13455   */\n      sub\n        /* \"#utility.yul\":13428:13460   */\n      slt\n        /* \"#utility.yul\":13425:13544   */\n      iszero\n      tag_304\n      jumpi\n        /* \"#utility.yul\":13463:13542   */\n      tag_305\n      tag_120\n      jump\t// in\n    tag_305:\n        /* \"#utility.yul\":13425:13544   */\n    tag_304:\n        /* \"#utility.yul\":13583:13584   */\n      0x00\n        /* \"#utility.yul\":13608:13672   */\n      tag_306\n        /* \"#utility.yul\":13664:13671   */\n      dup5\n        /* \"#utility.yul\":13655:13661   */\n      dup3\n        /* \"#utility.yul\":13644:13653   */\n      dup6\n        /* \"#utility.yul\":13640:13662   */\n      add\n        /* \"#utility.yul\":13608:13672   */\n      tag_142\n      jump\t// in\n    tag_306:\n        /* \"#utility.yul\":13598:13672   */\n      swap2\n      pop\n        /* \"#utility.yul\":13554:13682   */\n      pop\n        /* \"#utility.yul\":13338:13689   */\n      swap3\n      swap2\n      pop\n      pop\n      jump\t// out\n        /* \"#utility.yul\":13695:14027   */\n    tag_95:\n        /* \"#utility.yul\":13816:13820   */\n      0x00\n        /* \"#utility.yul\":13854:13856   */\n      0x40\n        /* \"#utility.yul\":13843:13852   */\n      dup3\n        /* \"#utility.yul\":13839:13857   */\n      add\n        /* \"#utility.yul\":13831:13857   */\n      swap1\n      pop\n        /* \"#utility.yul\":13867:13938   */\n      tag_308\n        /* \"#utility.yul\":13935:13936   */\n      0x00\n        /* \"#utility.yul\":13924:13933   */\n      dup4\n        /* \"#utility.yul\":13920:13937   */\n      add\n        /* \"#utility.yul\":13911:13917   */\n      dup6\n        /* \"#utility.yul\":13867:13938   */\n      tag_118\n      jump\t// in\n    tag_308:\n        /* \"#utility.yul\":13948:14020   */\n      tag_309\n        /* \"#utility.yul\":14016:14018   */\n      0x20\n        /* \"#utility.yul\":14005:14014   */\n      dup4\n        /* \"#utility.yul\":14001:14019   */\n      add\n        /* \"#utility.yul\":13992:13998   */\n      dup5\n        /* \"#utility.yul\":13948:14020   */\n      tag_125\n      jump\t// in\n    tag_309:\n        /* \"#utility.yul\":13695:14027   */\n      swap4\n      swap3\n      pop\n      pop\n      pop\n      jump\t// out\n        /* \"#utility.yul\":14033:14123   */\n    tag_155:\n        /* \"#utility.yul\":14067:14074   */\n      0x00\n        /* \"#utility.yul\":14110:14115   */\n      dup2\n        /* \"#utility.yul\":14103:14116   */\n      iszero\n        /* \"#utility.yul\":14096:14117   */\n      iszero\n        /* \"#utility.yul\":14085:14117   */\n      swap1\n      pop\n        /* \"#utility.yul\":14033:14123   */\n      swap2\n      swap1\n      pop\n      jump\t// out\n        /* \"#utility.yul\":14129:14245   */\n    tag_156:\n        /* \"#utility.yul\":14199:14220   */\n      tag_312\n        /* \"#utility.yul\":14214:14219   */\n      dup2\n        /* \"#utility.yul\":14199:14220   */\n      tag_155\n      jump\t// in\n    tag_312:\n        /* \"#utility.yul\":14192:14197   */\n      dup2\n        /* \"#utility.yul\":14189:14221   */\n      eq\n        /* \"#utility.yul\":14179:14239   */\n      tag_313\n      jumpi\n        /* \"#utility.yul\":14235:14236   */\n      0x00\n        /* \"#utility.yul\":14232:14233   */\n      dup1\n        /* \"#utility.yul\":14225:14237   */\n      revert\n        /* \"#utility.yul\":14179:14239   */\n    tag_313:\n        /* \"#utility.yul\":14129:14245   */\n      pop\n      jump\t// out\n        /* \"#utility.yul\":14251:14388   */\n    tag_157:\n        /* \"#utility.yul\":14305:14310   */\n      0x00\n        /* \"#utility.yul\":14336:14342   */\n      dup2\n        /* \"#utility.yul\":14330:14343   */\n      mload\n        /* \"#utility.yul\":14321:14343   */\n      swap1\n      pop\n        /* \"#utility.yul\":14352:14382   */\n      tag_315\n        /* \"#utility.yul\":14376:14381   */\n      dup2\n        /* \"#utility.yul\":14352:14382   */\n      tag_156\n      jump\t// in\n    tag_315:\n        /* \"#utility.yul\":14251:14388   */\n      swap3\n      swap2\n      pop\n      pop\n      jump\t// out\n        /* \"#utility.yul\":14394:14739   */\n    tag_99:\n        /* \"#utility.yul\":14461:14467   */\n      0x00\n        /* \"#utility.yul\":14510:14512   */\n      0x20\n        /* \"#utility.yul\":14498:14507   */\n      dup3\n        /* \"#utility.yul\":14489:14496   */\n      dup5\n        /* \"#utility.yul\":14485:14508   */\n      sub\n        /* \"#utility.yul\":14481:14513   */\n      slt\n        /* \"#utility.yul\":14478:14597   */\n      iszero\n      tag_317\n      jumpi\n        /* \"#utility.yul\":14516:14595   */\n      tag_318\n      tag_120\n      jump\t// in\n    tag_318:\n        /* \"#utility.yul\":14478:14597   */\n    tag_317:\n        /* \"#utility.yul\":14636:14637   */\n      0x00\n        /* \"#utility.yul\":14661:14722   */\n      tag_319\n        /* \"#utility.yul\":14714:14721   */\n      dup5\n        /* \"#utility.yul\":14705:14711   */\n      dup3\n        /* \"#utility.yul\":14694:14703   */\n      dup6\n        /* \"#utility.yul\":14690:14712   */\n      add\n        /* \"#utility.yul\":14661:14722   */\n      tag_157\n      jump\t// in\n    tag_319:\n        /* \"#utility.yul\":14651:14722   */\n      swap2\n      pop\n        /* \"#utility.yul\":14607:14732   */\n      pop\n        /* \"#utility.yul\":14394:14739   */\n      swap3\n      swap2\n      pop\n      pop\n      jump\t// out\n        /* \"#utility.yul\":14841:16464   */\n    tag_158:\n        /* \"#utility.yul\":15016:15022   */\n      0x0100\n        /* \"#utility.yul\":15011:15014   */\n      dup3\n        /* \"#utility.yul\":15007:15023   */\n      add\n        /* \"#utility.yul\":15108:15112   */\n      0x00\n        /* \"#utility.yul\":15101:15106   */\n      dup3\n        /* \"#utility.yul\":15097:15113   */\n      add\n        /* \"#utility.yul\":15091:15114   */\n      mload\n        /* \"#utility.yul\":15127:15190   */\n      tag_321\n        /* \"#utility.yul\":15184:15188   */\n      0x00\n        /* \"#utility.yul\":15179:15182   */\n      dup6\n        /* \"#utility.yul\":15175:15189   */\n      add\n        /* \"#utility.yul\":15161:15173   */\n      dup3\n        /* \"#utility.yul\":15127:15190   */\n      tag_150\n      jump\t// in\n    tag_321:\n        /* \"#utility.yul\":15033:15200   */\n      pop\n        /* \"#utility.yul\":15286:15290   */\n      0x20\n        /* \"#utility.yul\":15279:15284   */\n      dup3\n        /* \"#utility.yul\":15275:15291   */\n      add\n        /* \"#utility.yul\":15269:15292   */\n      mload\n        /* \"#utility.yul\":15305:15368   */\n      tag_322\n        /* \"#utility.yul\":15362:15366   */\n      0x20\n        /* \"#utility.yul\":15357:15360   */\n      dup6\n        /* \"#utility.yul\":15353:15367   */\n      add\n        /* \"#utility.yul\":15339:15351   */\n      dup3\n        /* \"#utility.yul\":15305:15368   */\n      tag_150\n      jump\t// in\n    tag_322:\n        /* \"#utility.yul\":15210:15378   */\n      pop\n        /* \"#utility.yul\":15459:15463   */\n      0x40\n        /* \"#utility.yul\":15452:15457   */\n      dup3\n        /* \"#utility.yul\":15448:15464   */\n      add\n        /* \"#utility.yul\":15442:15465   */\n      mload\n        /* \"#utility.yul\":15478:15539   */\n      tag_323\n        /* \"#utility.yul\":15533:15537   */\n      0x40\n        /* \"#utility.yul\":15528:15531   */\n      dup6\n        /* \"#utility.yul\":15524:15538   */\n      add\n        /* \"#utility.yul\":15510:15522   */\n      dup3\n        /* \"#utility.yul\":15478:15539   */\n      tag_151\n      jump\t// in\n    tag_323:\n        /* \"#utility.yul\":15388:15549   */\n      pop\n        /* \"#utility.yul\":15636:15640   */\n      0x60\n        /* \"#utility.yul\":15629:15634   */\n      dup3\n        /* \"#utility.yul\":15625:15641   */\n      add\n        /* \"#utility.yul\":15619:15642   */\n      mload\n        /* \"#utility.yul\":15655:15718   */\n      tag_324\n        /* \"#utility.yul\":15712:15716   */\n      0x60\n        /* \"#utility.yul\":15707:15710   */\n      dup6\n        /* \"#utility.yul\":15703:15717   */\n      add\n        /* \"#utility.yul\":15689:15701   */\n      dup3\n        /* \"#utility.yul\":15655:15718   */\n      tag_150\n      jump\t// in\n    tag_324:\n        /* \"#utility.yul\":15559:15728   */\n      pop\n        /* \"#utility.yul\":15814:15818   */\n      0x80\n        /* \"#utility.yul\":15807:15812   */\n      dup3\n        /* \"#utility.yul\":15803:15819   */\n      add\n        /* \"#utility.yul\":15797:15820   */\n      mload\n        /* \"#utility.yul\":15833:15896   */\n      tag_325\n        /* \"#utility.yul\":15890:15894   */\n      0x80\n        /* \"#utility.yul\":15885:15888   */\n      dup6\n        /* \"#utility.yul\":15881:15895   */\n      add\n        /* \"#utility.yul\":15867:15879   */\n      dup3\n        /* \"#utility.yul\":15833:15896   */\n      tag_152\n      jump\t// in\n    tag_325:\n        /* \"#utility.yul\":15738:15906   */\n      pop\n        /* \"#utility.yul\":15993:15997   */\n      0xa0\n        /* \"#utility.yul\":15986:15991   */\n      dup3\n        /* \"#utility.yul\":15982:15998   */\n      add\n        /* \"#utility.yul\":15976:15999   */\n      mload\n        /* \"#utility.yul\":16012:16075   */\n      tag_326\n        /* \"#utility.yul\":16069:16073   */\n      0xa0\n        /* \"#utility.yul\":16064:16067   */\n      dup6\n        /* \"#utility.yul\":16060:16074   */\n      add\n        /* \"#utility.yul\":16046:16058   */\n      dup3\n        /* \"#utility.yul\":16012:16075   */\n      tag_152\n      jump\t// in\n    tag_326:\n        /* \"#utility.yul\":15916:16085   */\n      pop\n        /* \"#utility.yul\":16178:16182   */\n      0xc0\n        /* \"#utility.yul\":16171:16176   */\n      dup3\n        /* \"#utility.yul\":16167:16183   */\n      add\n        /* \"#utility.yul\":16161:16184   */\n      mload\n        /* \"#utility.yul\":16197:16260   */\n      tag_327\n        /* \"#utility.yul\":16254:16258   */\n      0xc0\n        /* \"#utility.yul\":16249:16252   */\n      dup6\n        /* \"#utility.yul\":16245:16259   */\n      add\n        /* \"#utility.yul\":16231:16243   */\n      dup3\n        /* \"#utility.yul\":16197:16260   */\n      tag_152\n      jump\t// in\n    tag_327:\n        /* \"#utility.yul\":16095:16270   */\n      pop\n        /* \"#utility.yul\":16365:16369   */\n      0xe0\n        /* \"#utility.yul\":16358:16363   */\n      dup3\n        /* \"#utility.yul\":16354:16370   */\n      add\n        /* \"#utility.yul\":16348:16371   */\n      mload\n        /* \"#utility.yul\":16384:16447   */\n      tag_328\n        /* \"#utility.yul\":16441:16445   */\n      0xe0\n        /* \"#utility.yul\":16436:16439   */\n      dup6\n        /* \"#utility.yul\":16432:16446   */\n      add\n        /* \"#utility.yul\":16418:16430   */\n      dup3\n        /* \"#utility.yul\":16384:16447   */\n      tag_153\n      jump\t// in\n    tag_328:\n        /* \"#utility.yul\":16280:16457   */\n      pop\n        /* \"#utility.yul\":14985:16464   */\n      pop\n        /* \"#utility.yul\":14841:16464   */\n      pop\n      pop\n      jump\t// out\n        /* \"#utility.yul\":16470:16849   */\n    tag_101:\n        /* \"#utility.yul\":16641:16645   */\n      0x00\n        /* \"#utility.yul\":16679:16682   */\n      0x0100\n        /* \"#utility.yul\":16668:16677   */\n      dup3\n        /* \"#utility.yul\":16664:16683   */\n      add\n        /* \"#utility.yul\":16656:16683   */\n      swap1\n      pop\n        /* \"#utility.yul\":16693:16842   */\n      tag_330\n        /* \"#utility.yul\":16839:16840   */\n      0x00\n        /* \"#utility.yul\":16828:16837   */\n      dup4\n        /* \"#utility.yul\":16824:16841   */\n      add\n        /* \"#utility.yul\":16815:16821   */\n      dup5\n        /* \"#utility.yul\":16693:16842   */\n      tag_158\n      jump\t// in\n    tag_330:\n        /* \"#utility.yul\":16470:16849   */\n      swap3\n      swap2\n      pop\n      pop\n      jump\t// out\n        /* \"#utility.yul\":16855:16940   */\n    tag_159:\n        /* \"#utility.yul\":16900:16907   */\n      0x00\n        /* \"#utility.yul\":16929:16934   */\n      dup2\n        /* \"#utility.yul\":16918:16934   */\n      swap1\n      pop\n        /* \"#utility.yul\":16855:16940   */\n      swap2\n      swap1\n      pop\n      jump\t// out\n        /* \"#utility.yul\":16946:17032   */\n    tag_160:\n        /* \"#utility.yul\":16981:16988   */\n      0x00\n        /* \"#utility.yul\":17021:17025   */\n      0xff\n        /* \"#utility.yul\":17014:17019   */\n      dup3\n        /* \"#utility.yul\":17010:17026   */\n      and\n        /* \"#utility.yul\":16999:17026   */\n      swap1\n      pop\n        /* \"#utility.yul\":16946:17032   */\n      swap2\n      swap1\n      pop\n      jump\t// out\n        /* \"#utility.yul\":17038:17192   */\n    tag_161:\n        /* \"#utility.yul\":17094:17103   */\n      0x00\n        /* \"#utility.yul\":17127:17186   */\n      tag_334\n        /* \"#utility.yul\":17143:17185   */\n      tag_335\n        /* \"#utility.yul\":17152:17184   */\n      tag_336\n        /* \"#utility.yul\":17178:17183   */\n      dup5\n        /* \"#utility.yul\":17152:17184   */\n      tag_159\n      jump\t// in\n    tag_336:\n        /* \"#utility.yul\":17143:17185   */\n      tag_126\n      jump\t// in\n    tag_335:\n        /* \"#utility.yul\":17127:17186   */\n      tag_160\n      jump\t// in\n    tag_334:\n        /* \"#utility.yul\":17114:17186   */\n      swap1\n      pop\n        /* \"#utility.yul\":17038:17192   */\n      swap2\n      swap1\n      pop\n      jump\t// out\n        /* \"#utility.yul\":17198:17341   */\n    tag_162:\n        /* \"#utility.yul\":17291:17334   */\n      tag_338\n        /* \"#utility.yul\":17328:17333   */\n      dup2\n        /* \"#utility.yul\":17291:17334   */\n      tag_161\n      jump\t// in\n    tag_338:\n        /* \"#utility.yul\":17286:17289   */\n      dup3\n        /* \"#utility.yul\":17279:17335   */\n      mstore\n        /* \"#utility.yul\":17198:17341   */\n      pop\n      pop\n      jump\t// out\n        /* \"#utility.yul\":17347:17691   */\n    tag_106:\n        /* \"#utility.yul\":17474:17478   */\n      0x00\n        /* \"#utility.yul\":17512:17514   */\n      0x40\n        /* \"#utility.yul\":17501:17510   */\n      dup3\n        /* \"#utility.yul\":17497:17515   */\n      add\n        /* \"#utility.yul\":17489:17515   */\n      swap1\n      pop\n        /* \"#utility.yul\":17525:17596   */\n      tag_340\n        /* \"#utility.yul\":17593:17594   */\n      0x00\n        /* \"#utility.yul\":17582:17591   */\n      dup4\n        /* \"#utility.yul\":17578:17595   */\n      add\n        /* \"#utility.yul\":17569:17575   */\n      dup6\n        /* \"#utility.yul\":17525:17596   */\n      tag_118\n      jump\t// in\n    tag_340:\n        /* \"#utility.yul\":17606:17684   */\n      tag_341\n        /* \"#utility.yul\":17680:17682   */\n      0x20\n        /* \"#utility.yul\":17669:17678   */\n      dup4\n        /* \"#utility.yul\":17665:17683   */\n      add\n        /* \"#utility.yul\":17656:17662   */\n      dup5\n        /* \"#utility.yul\":17606:17684   */\n      tag_162\n      jump\t// in\n    tag_341:\n        /* \"#utility.yul\":17347:17691   */\n      swap4\n      swap3\n      pop\n      pop\n      pop\n      jump\t// out\n        /* \"#utility.yul\":17697:17869   */\n    tag_163:\n        /* \"#utility.yul\":17837:17861   */\n      0x4465706f73697420746f2041617665206661696c656400000000000000000000\n        /* \"#utility.yul\":17833:17834   */\n      0x00\n        /* \"#utility.yul\":17825:17831   */\n      dup3\n        /* \"#utility.yul\":17821:17835   */\n      add\n        /* \"#utility.yul\":17814:17862   */\n      mstore\n        /* \"#utility.yul\":17697:17869   */\n      pop\n      jump\t// out\n        /* \"#utility.yul\":17875:18241   */\n    tag_164:\n        /* \"#utility.yul\":18017:18020   */\n      0x00\n        /* \"#utility.yul\":18038:18105   */\n      tag_344\n        /* \"#utility.yul\":18102:18104   */\n      0x16\n        /* \"#utility.yul\":18097:18100   */\n      dup4\n        /* \"#utility.yul\":18038:18105   */\n      tag_147\n      jump\t// in\n    tag_344:\n        /* \"#utility.yul\":18031:18105   */\n      swap2\n      pop\n        /* \"#utility.yul\":18114:18207   */\n      tag_345\n        /* \"#utility.yul\":18203:18206   */\n      dup3\n        /* \"#utility.yul\":18114:18207   */\n      tag_163\n      jump\t// in\n    tag_345:\n        /* \"#utility.yul\":18232:18234   */\n      0x20\n        /* \"#utility.yul\":18227:18230   */\n      dup3\n        /* \"#utility.yul\":18223:18235   */\n      add\n        /* \"#utility.yul\":18216:18235   */\n      swap1\n      pop\n        /* \"#utility.yul\":17875:18241   */\n      swap2\n      swap1\n      pop\n      jump\t// out\n        /* \"#utility.yul\":18247:18666   */\n    tag_113:\n        /* \"#utility.yul\":18413:18417   */\n      0x00\n        /* \"#utility.yul\":18451:18453   */\n      0x20\n        /* \"#utility.yul\":18440:18449   */\n      dup3\n        /* \"#utility.yul\":18436:18454   */\n      add\n        /* \"#utility.yul\":18428:18454   */\n      swap1\n      pop\n        /* \"#utility.yul\":18500:18509   */\n      dup2\n        /* \"#utility.yul\":18494:18498   */\n      dup2\n        /* \"#utility.yul\":18490:18510   */\n      sub\n        /* \"#utility.yul\":18486:18487   */\n      0x00\n        /* \"#utility.yul\":18475:18484   */\n      dup4\n        /* \"#utility.yul\":18471:18488   */\n      add\n        /* \"#utility.yul\":18464:18511   */\n      mstore\n        /* \"#utility.yul\":18528:18659   */\n      tag_347\n        /* \"#utility.yul\":18654:18658   */\n      dup2\n        /* \"#utility.yul\":18528:18659   */\n      tag_164\n      jump\t// in\n    tag_347:\n        /* \"#utility.yul\":18520:18659   */\n      swap1\n      pop\n        /* \"#utility.yul\":18247:18666   */\n      swap2\n      swap1\n      pop\n      jump\t// out\n\n    auxdata: 0xa264697066735822122088a53f55987a83756752f9242c1feba7b67ccb895a90570626cde1b774f2eb6264736f6c63430008190033\n}\n",
				"bytecode": {
					"linkReferences": {},
					"object": "610100604052348015610010575f80fd5b5060405161169e38038061169e83398181016040528101906100329190610170565b8373ffffffffffffffffffffffffffffffffffffffff1660808173ffffffffffffffffffffffffffffffffffffffff16815250508273ffffffffffffffffffffffffffffffffffffffff1660a08173ffffffffffffffffffffffffffffffffffffffff16815250508173ffffffffffffffffffffffffffffffffffffffff1660c08173ffffffffffffffffffffffffffffffffffffffff16815250508073ffffffffffffffffffffffffffffffffffffffff1660e08173ffffffffffffffffffffffffffffffffffffffff168152505042600281905550505050506101d4565b5f80fd5b5f73ffffffffffffffffffffffffffffffffffffffff82169050919050565b5f61013f82610116565b9050919050565b61014f81610135565b8114610159575f80fd5b50565b5f8151905061016a81610146565b92915050565b5f805f806080858703121561018857610187610112565b5b5f6101958782880161015c565b94505060206101a68782880161015c565b93505060406101b78782880161015c565b92505060606101c88782880161015c565b91505092959194509250565b60805160a05160c05160e0516114586102465f395f81816102a4015281816104bc0152610a3e01525f8181610497015281816106d00152818161084701526109a301525f818161044e0152818161063d015281816107710152818161080b01526108d401525f6103a501526114585ff3fe608060405234801561000f575f80fd5b5060043610610086575f3560e01c8063a0a8045e11610059578063a0a8045e146100ec578063a98ad46c1461010a578063b119fb1314610128578063c31c9c071461015a57610086565b8063089fe6aa1461008a5780633b7104f2146100a85780634fe0c742146100b25780636b0e6976146100d0575b5f80fd5b610092610178565b60405161009f9190610bb5565b60405180910390f35b6100b061017e565b005b6100ba6102a2565b6040516100c79190610c0d565b60405180910390f35b6100ea60048036038101906100e59190610c5d565b6102c6565b005b6100f46103a1565b6040516101019190610cbc565b60405180910390f35b61011261044c565b60405161011f9190610d30565b60405180910390f35b610142600480360381019061013d9190610d73565b610470565b60405161015193929190610d9e565b60405180910390f35b610162610495565b60405161016f9190610df3565b60405180910390f35b613a9881565b603c6002544261018e9190610e39565b11156102a0575f61019d6103a1565b90505f5b600180549050811015610296575f600182815481106101c3576101c2610e6c565b5b905f5260205f20015f9054906101000a900473ffffffffffffffffffffffffffffffffffffffff1690505f805f8373ffffffffffffffffffffffffffffffffffffffff1673ffffffffffffffffffffffffffffffffffffffff1681526020019081526020015f206040518060600160405290815f8201548152602001600182015481526020016002820154815250509050805f015184106102715761026c8282604001516104b9565b610287565b80602001518411610286576102858261076e565b5b5b505080806001019150506101a1565b5042600281905550505b565b7f000000000000000000000000000000000000000000000000000000000000000081565b6040518060600160405280848152602001838152602001828152505f803373ffffffffffffffffffffffffffffffffffffffff1673ffffffffffffffffffffffffffffffffffffffff1681526020019081526020015f205f820151815f01556020820151816001015560408201518160020155905050600133908060018154018082558091505060019003905f5260205f20015f9091909190916101000a81548173ffffffffffffffffffffffffffffffffffffffff021916908373ffffffffffffffffffffffffffffffffffffffff160217905550505050565b5f807f000000000000000000000000000000000000000000000000000000000000000073ffffffffffffffffffffffffffffffffffffffff1663feaf968c6040518163ffffffff1660e01b815260040160a060405180830381865afa15801561040c573d5f803e3d5ffd5b505050506040513d601f19601f820116820180604052508101906104309190610f1f565b5050509150506305f5e100816104469190610f96565b91505090565b7f000000000000000000000000000000000000000000000000000000000000000081565b5f602052805f5260405f205f91509050805f0154908060010154908060020154905083565b7f000000000000000000000000000000000000000000000000000000000000000081565b5f7f000000000000000000000000000000000000000000000000000000000000000073ffffffffffffffffffffffffffffffffffffffff1683838560405160240161050693929190610fd7565b6040516020818303038152906040527f80500d20000000000000000000000000000000000000000000000000000000007bffffffffffffffffffffffffffffffffffffffffffffffffffffffff19166020820180517bffffffffffffffffffffffffffffffffffffffffffffffffffffffff8381831617835250505050604051610590919061105e565b5f604051808303815f865af19150503d805f81146105c9576040519150601f19603f3d011682016040523d82523d5f602084013e6105ce565b606091505b5050905080610612576040517f08c379a0000000000000000000000000000000000000000000000000000000008152600401610609906110ce565b60405180910390fd5b5f6040518061010001604052805f73ffffffffffffffffffffffffffffffffffffffff1681526020017f000000000000000000000000000000000000000000000000000000000000000073ffffffffffffffffffffffffffffffffffffffff168152602001613a9862ffffff1681526020018573ffffffffffffffffffffffffffffffffffffffff1681526020014281526020018481526020015f81526020015f73ffffffffffffffffffffffffffffffffffffffff1681525090507f000000000000000000000000000000000000000000000000000000000000000073ffffffffffffffffffffffffffffffffffffffff1663414bf389826040518263ffffffff1660e01b815260040161072791906111c8565b6020604051808303815f875af1158015610743573d5f803e3d5ffd5b505050506040513d601f19601f8201168201806040525081019061076791906111e2565b5050505050565b5f7f000000000000000000000000000000000000000000000000000000000000000073ffffffffffffffffffffffffffffffffffffffff166370a08231836040518263ffffffff1660e01b81526004016107c89190610c0d565b602060405180830381865afa1580156107e3573d5f803e3d5ffd5b505050506040513d601f19601f8201168201806040525081019061080791906111e2565b90507f000000000000000000000000000000000000000000000000000000000000000073ffffffffffffffffffffffffffffffffffffffff1663095ea7b37f0000000000000000000000000000000000000000000000000000000000000000836040518363ffffffff1660e01b815260040161088492919061120d565b6020604051808303815f875af11580156108a0573d5f803e3d5ffd5b505050506040513d601f19601f820116820180604052508101906108c49190611269565b505f6040518061010001604052807f000000000000000000000000000000000000000000000000000000000000000073ffffffffffffffffffffffffffffffffffffffff1681526020015f73ffffffffffffffffffffffffffffffffffffffff168152602001613a9862ffffff1681526020018473ffffffffffffffffffffffffffffffffffffffff1681526020014281526020018381526020017fffffffffffffffffffffffffffffffffffffffffffffffffffffffffffffffff81526020015f73ffffffffffffffffffffffffffffffffffffffff1681525090507f000000000000000000000000000000000000000000000000000000000000000073ffffffffffffffffffffffffffffffffffffffff1663db3e2198826040518263ffffffff1660e01b81526004016109fa9190611334565b6020604051808303815f875af1158015610a16573d5f803e3d5ffd5b505050506040513d601f19601f82011682018060405250810190610a3a91906111e2565b505f7f000000000000000000000000000000000000000000000000000000000000000073ffffffffffffffffffffffffffffffffffffffff16845f604051602401610a86929190611393565b6040516020818303038152906040527f58c22be7000000000000000000000000000000000000000000000000000000007bffffffffffffffffffffffffffffffffffffffffffffffffffffffff19166020820180517bffffffffffffffffffffffffffffffffffffffffffffffffffffffff8381831617835250505050604051610b10919061105e565b5f604051808303815f865af19150503d805f8114610b49576040519150601f19603f3d011682016040523d82523d5f602084013e610b4e565b606091505b5050905080610b92576040517f08c379a0000000000000000000000000000000000000000000000000000000008152600401610b8990611404565b60405180910390fd5b50505050565b5f62ffffff82169050919050565b610baf81610b98565b82525050565b5f602082019050610bc85f830184610ba6565b92915050565b5f73ffffffffffffffffffffffffffffffffffffffff82169050919050565b5f610bf782610bce565b9050919050565b610c0781610bed565b82525050565b5f602082019050610c205f830184610bfe565b92915050565b5f80fd5b5f819050919050565b610c3c81610c2a565b8114610c46575f80fd5b50565b5f81359050610c5781610c33565b92915050565b5f805f60608486031215610c7457610c73610c26565b5b5f610c8186828701610c49565b9350506020610c9286828701610c49565b9250506040610ca386828701610c49565b9150509250925092565b610cb681610c2a565b82525050565b5f602082019050610ccf5f830184610cad565b92915050565b5f819050919050565b5f610cf8610cf3610cee84610bce565b610cd5565b610bce565b9050919050565b5f610d0982610cde565b9050919050565b5f610d1a82610cff565b9050919050565b610d2a81610d10565b82525050565b5f602082019050610d435f830184610d21565b92915050565b610d5281610bed565b8114610d5c575f80fd5b50565b5f81359050610d6d81610d49565b92915050565b5f60208284031215610d8857610d87610c26565b5b5f610d9584828501610d5f565b91505092915050565b5f606082019050610db15f830186610cad565b610dbe6020830185610cad565b610dcb6040830184610cad565b949350505050565b5f610ddd82610cff565b9050919050565b610ded81610dd3565b82525050565b5f602082019050610e065f830184610de4565b92915050565b7f4e487b71000000000000000000000000000000000000000000000000000000005f52601160045260245ffd5b5f610e4382610c2a565b9150610e4e83610c2a565b9250828203905081811115610e6657610e65610e0c565b5b92915050565b7f4e487b71000000000000000000000000000000000000000000000000000000005f52603260045260245ffd5b5f69ffffffffffffffffffff82169050919050565b610eb781610e99565b8114610ec1575f80fd5b50565b5f81519050610ed281610eae565b92915050565b5f819050919050565b610eea81610ed8565b8114610ef4575f80fd5b50565b5f81519050610f0581610ee1565b92915050565b5f81519050610f1981610c33565b92915050565b5f805f805f60a08688031215610f3857610f37610c26565b5b5f610f4588828901610ec4565b9550506020610f5688828901610ef7565b9450506040610f6788828901610f0b565b9350506060610f7888828901610f0b565b9250506080610f8988828901610ec4565b9150509295509295909350565b5f610fa082610c2a565b9150610fab83610c2a565b9250828202610fb981610c2a565b91508282048414831517610fd057610fcf610e0c565b5b5092915050565b5f606082019050610fea5f830186610bfe565b610ff76020830185610cad565b6110046040830184610bfe565b949350505050565b5f81519050919050565b5f81905092915050565b8281835e5f83830152505050565b5f6110388261100c565b6110428185611016565b9350611052818560208601611020565b80840191505092915050565b5f611069828461102e565b915081905092915050565b5f82825260208201905092915050565b7f5769746864726177616c2066726f6d2041617665206661696c656400000000005f82015250565b5f6110b8601b83611074565b91506110c382611084565b602082019050919050565b5f6020820190508181035f8301526110e5816110ac565b9050919050565b6110f581610bed565b82525050565b61110481610b98565b82525050565b61111381610c2a565b82525050565b61112281610bce565b82525050565b61010082015f82015161113d5f8501826110ec565b50602082015161115060208501826110ec565b50604082015161116360408501826110fb565b50606082015161117660608501826110ec565b506080820151611189608085018261110a565b5060a082015161119c60a085018261110a565b5060c08201516111af60c085018261110a565b5060e08201516111c260e0850182611119565b50505050565b5f610100820190506111dc5f830184611128565b92915050565b5f602082840312156111f7576111f6610c26565b5b5f61120484828501610f0b565b91505092915050565b5f6040820190506112205f830185610bfe565b61122d6020830184610cad565b9392505050565b5f8115159050919050565b61124881611234565b8114611252575f80fd5b50565b5f815190506112638161123f565b92915050565b5f6020828403121561127e5761127d610c26565b5b5f61128b84828501611255565b91505092915050565b61010082015f8201516112a95f8501826110ec565b5060208201516112bc60208501826110ec565b5060408201516112cf60408501826110fb565b5060608201516112e260608501826110ec565b5060808201516112f5608085018261110a565b5060a082015161130860a085018261110a565b5060c082015161131b60c085018261110a565b5060e082015161132e60e0850182611119565b50505050565b5f610100820190506113485f830184611294565b92915050565b5f819050919050565b5f60ff82169050919050565b5f61137d6113786113738461134e565b610cd5565b611357565b9050919050565b61138d81611363565b82525050565b5f6040820190506113a65f830185610bfe565b6113b36020830184611384565b9392505050565b7f4465706f73697420746f2041617665206661696c6564000000000000000000005f82015250565b5f6113ee601683611074565b91506113f9826113ba565b602082019050919050565b5f6020820190508181035f83015261141b816113e2565b905091905056fea264697066735822122088a53f55987a83756752f9242c1feba7b67ccb895a90570626cde1b774f2eb6264736f6c63430008190033",
					"opcodes": "PUSH2 0x100 PUSH1 0x40 MSTORE CALLVALUE DUP1 ISZERO PUSH2 0x10 JUMPI PUSH0 DUP1 REVERT JUMPDEST POP PUSH1 0x40 MLOAD PUSH2 0x169E CODESIZE SUB DUP1 PUSH2 0x169E DUP4 CODECOPY DUP2 DUP2 ADD PUSH1 0x40 MSTORE DUP2 ADD SWAP1 PUSH2 0x32 SWAP2 SWAP1 PUSH2 0x170 JUMP JUMPDEST DUP4 PUSH20 0xFFFFFFFFFFFFFFFFFFFFFFFFFFFFFFFFFFFFFFFF AND PUSH1 0x80 DUP2 PUSH20 0xFFFFFFFFFFFFFFFFFFFFFFFFFFFFFFFFFFFFFFFF AND DUP2 MSTORE POP POP DUP3 PUSH20 0xFFFFFFFFFFFFFFFFFFFFFFFFFFFFFFFFFFFFFFFF AND PUSH1 0xA0 DUP2 PUSH20 0xFFFFFFFFFFFFFFFFFFFFFFFFFFFFFFFFFFFFFFFF AND DUP2 MSTORE POP POP DUP2 PUSH20 0xFFFFFFFFFFFFFFFFFFFFFFFFFFFFFFFFFFFFFFFF AND PUSH1 0xC0 DUP2 PUSH20 0xFFFFFFFFFFFFFFFFFFFFFFFFFFFFFFFFFFFFFFFF AND DUP2 MSTORE POP POP DUP1 PUSH20 0xFFFFFFFFFFFFFFFFFFFFFFFFFFFFFFFFFFFFFFFF AND PUSH1 0xE0 DUP2 PUSH20 0xFFFFFFFFFFFFFFFFFFFFFFFFFFFFFFFFFFFFFFFF AND DUP2 MSTORE POP POP TIMESTAMP PUSH1 0x2 DUP2 SWAP1 SSTORE POP POP POP POP POP PUSH2 0x1D4 JUMP JUMPDEST PUSH0 DUP1 REVERT JUMPDEST PUSH0 PUSH20 0xFFFFFFFFFFFFFFFFFFFFFFFFFFFFFFFFFFFFFFFF DUP3 AND SWAP1 POP SWAP2 SWAP1 POP JUMP JUMPDEST PUSH0 PUSH2 0x13F DUP3 PUSH2 0x116 JUMP JUMPDEST SWAP1 POP SWAP2 SWAP1 POP JUMP JUMPDEST PUSH2 0x14F DUP2 PUSH2 0x135 JUMP JUMPDEST DUP2 EQ PUSH2 0x159 JUMPI PUSH0 DUP1 REVERT JUMPDEST POP JUMP JUMPDEST PUSH0 DUP2 MLOAD SWAP1 POP PUSH2 0x16A DUP2 PUSH2 0x146 JUMP JUMPDEST SWAP3 SWAP2 POP POP JUMP JUMPDEST PUSH0 DUP1 PUSH0 DUP1 PUSH1 0x80 DUP6 DUP8 SUB SLT ISZERO PUSH2 0x188 JUMPI PUSH2 0x187 PUSH2 0x112 JUMP JUMPDEST JUMPDEST PUSH0 PUSH2 0x195 DUP8 DUP3 DUP9 ADD PUSH2 0x15C JUMP JUMPDEST SWAP5 POP POP PUSH1 0x20 PUSH2 0x1A6 DUP8 DUP3 DUP9 ADD PUSH2 0x15C JUMP JUMPDEST SWAP4 POP POP PUSH1 0x40 PUSH2 0x1B7 DUP8 DUP3 DUP9 ADD PUSH2 0x15C JUMP JUMPDEST SWAP3 POP POP PUSH1 0x60 PUSH2 0x1C8 DUP8 DUP3 DUP9 ADD PUSH2 0x15C JUMP JUMPDEST SWAP2 POP POP SWAP3 SWAP6 SWAP2 SWAP5 POP SWAP3 POP JUMP JUMPDEST PUSH1 0x80 MLOAD PUSH1 0xA0 MLOAD PUSH1 0xC0 MLOAD PUSH1 0xE0 MLOAD PUSH2 0x1458 PUSH2 0x246 PUSH0 CODECOPY PUSH0 DUP2 DUP2 PUSH2 0x2A4 ADD MSTORE DUP2 DUP2 PUSH2 0x4BC ADD MSTORE PUSH2 0xA3E ADD MSTORE PUSH0 DUP2 DUP2 PUSH2 0x497 ADD MSTORE DUP2 DUP2 PUSH2 0x6D0 ADD MSTORE DUP2 DUP2 PUSH2 0x847 ADD MSTORE PUSH2 0x9A3 ADD MSTORE PUSH0 DUP2 DUP2 PUSH2 0x44E ADD MSTORE DUP2 DUP2 PUSH2 0x63D ADD MSTORE DUP2 DUP2 PUSH2 0x771 ADD MSTORE DUP2 DUP2 PUSH2 0x80B ADD MSTORE PUSH2 0x8D4 ADD MSTORE PUSH0 PUSH2 0x3A5 ADD MSTORE PUSH2 0x1458 PUSH0 RETURN INVALID PUSH1 0x80 PUSH1 0x40 MSTORE CALLVALUE DUP1 ISZERO PUSH2 0xF JUMPI PUSH0 DUP1 REVERT JUMPDEST POP PUSH1 0x4 CALLDATASIZE LT PUSH2 0x86 JUMPI PUSH0 CALLDATALOAD PUSH1 0xE0 SHR DUP1 PUSH4 0xA0A8045E GT PUSH2 0x59 JUMPI DUP1 PUSH4 0xA0A8045E EQ PUSH2 0xEC JUMPI DUP1 PUSH4 0xA98AD46C EQ PUSH2 0x10A JUMPI DUP1 PUSH4 0xB119FB13 EQ PUSH2 0x128 JUMPI DUP1 PUSH4 0xC31C9C07 EQ PUSH2 0x15A JUMPI PUSH2 0x86 JUMP JUMPDEST DUP1 PUSH4 0x89FE6AA EQ PUSH2 0x8A JUMPI DUP1 PUSH4 0x3B7104F2 EQ PUSH2 0xA8 JUMPI DUP1 PUSH4 0x4FE0C742 EQ PUSH2 0xB2 JUMPI DUP1 PUSH4 0x6B0E6976 EQ PUSH2 0xD0 JUMPI JUMPDEST PUSH0 DUP1 REVERT JUMPDEST PUSH2 0x92 PUSH2 0x178 JUMP JUMPDEST PUSH1 0x40 MLOAD PUSH2 0x9F SWAP2 SWAP1 PUSH2 0xBB5 JUMP JUMPDEST PUSH1 0x40 MLOAD DUP1 SWAP2 SUB SWAP1 RETURN JUMPDEST PUSH2 0xB0 PUSH2 0x17E JUMP JUMPDEST STOP JUMPDEST PUSH2 0xBA PUSH2 0x2A2 JUMP JUMPDEST PUSH1 0x40 MLOAD PUSH2 0xC7 SWAP2 SWAP1 PUSH2 0xC0D JUMP JUMPDEST PUSH1 0x40 MLOAD DUP1 SWAP2 SUB SWAP1 RETURN JUMPDEST PUSH2 0xEA PUSH1 0x4 DUP1 CALLDATASIZE SUB DUP2 ADD SWAP1 PUSH2 0xE5 SWAP2 SWAP1 PUSH2 0xC5D JUMP JUMPDEST PUSH2 0x2C6 JUMP JUMPDEST STOP JUMPDEST PUSH2 0xF4 PUSH2 0x3A1 JUMP JUMPDEST PUSH1 0x40 MLOAD PUSH2 0x101 SWAP2 SWAP1 PUSH2 0xCBC JUMP JUMPDEST PUSH1 0x40 MLOAD DUP1 SWAP2 SUB SWAP1 RETURN JUMPDEST PUSH2 0x112 PUSH2 0x44C JUMP JUMPDEST PUSH1 0x40 MLOAD PUSH2 0x11F SWAP2 SWAP1 PUSH2 0xD30 JUMP JUMPDEST PUSH1 0x40 MLOAD DUP1 SWAP2 SUB SWAP1 RETURN JUMPDEST PUSH2 0x142 PUSH1 0x4 DUP1 CALLDATASIZE SUB DUP2 ADD SWAP1 PUSH2 0x13D SWAP2 SWAP1 PUSH2 0xD73 JUMP JUMPDEST PUSH2 0x470 JUMP JUMPDEST PUSH1 0x40 MLOAD PUSH2 0x151 SWAP4 SWAP3 SWAP2 SWAP1 PUSH2 0xD9E JUMP JUMPDEST PUSH1 0x40 MLOAD DUP1 SWAP2 SUB SWAP1 RETURN JUMPDEST PUSH2 0x162 PUSH2 0x495 JUMP JUMPDEST PUSH1 0x40 MLOAD PUSH2 0x16F SWAP2 SWAP1 PUSH2 0xDF3 JUMP JUMPDEST PUSH1 0x40 MLOAD DUP1 SWAP2 SUB SWAP1 RETURN JUMPDEST PUSH2 0x3A98 DUP2 JUMP JUMPDEST PUSH1 0x3C PUSH1 0x2 SLOAD TIMESTAMP PUSH2 0x18E SWAP2 SWAP1 PUSH2 0xE39 JUMP JUMPDEST GT ISZERO PUSH2 0x2A0 JUMPI PUSH0 PUSH2 0x19D PUSH2 0x3A1 JUMP JUMPDEST SWAP1 POP PUSH0 JUMPDEST PUSH1 0x1 DUP1 SLOAD SWAP1 POP DUP2 LT ISZERO PUSH2 0x296 JUMPI PUSH0 PUSH1 0x1 DUP3 DUP2 SLOAD DUP2 LT PUSH2 0x1C3 JUMPI PUSH2 0x1C2 PUSH2 0xE6C JUMP JUMPDEST JUMPDEST SWAP1 PUSH0 MSTORE PUSH1 0x20 PUSH0 KECCAK256 ADD PUSH0 SWAP1 SLOAD SWAP1 PUSH2 0x100 EXP SWAP1 DIV PUSH20 0xFFFFFFFFFFFFFFFFFFFFFFFFFFFFFFFFFFFFFFFF AND SWAP1 POP PUSH0 DUP1 PUSH0 DUP4 PUSH20 0xFFFFFFFFFFFFFFFFFFFFFFFFFFFFFFFFFFFFFFFF AND PUSH20 0xFFFFFFFFFFFFFFFFFFFFFFFFFFFFFFFFFFFFFFFF AND DUP2 MSTORE PUSH1 0x20 ADD SWAP1 DUP2 MSTORE PUSH1 0x20 ADD PUSH0 KECCAK256 PUSH1 0x40 MLOAD DUP1 PUSH1 0x60 ADD PUSH1 0x40 MSTORE SWAP1 DUP2 PUSH0 DUP3 ADD SLOAD DUP2 MSTORE PUSH1 0x20 ADD PUSH1 0x1 DUP3 ADD SLOAD DUP2 MSTORE PUSH1 0x20 ADD PUSH1 0x2 DUP3 ADD SLOAD DUP2 MSTORE POP POP SWAP1 POP DUP1 PUSH0 ADD MLOAD DUP5 LT PUSH2 0x271 JUMPI PUSH2 0x26C DUP3 DUP3 PUSH1 0x40 ADD MLOAD PUSH2 0x4B9 JUMP JUMPDEST PUSH2 0x287 JUMP JUMPDEST DUP1 PUSH1 0x20 ADD MLOAD DUP5 GT PUSH2 0x286 JUMPI PUSH2 0x285 DUP3 PUSH2 0x76E JUMP JUMPDEST JUMPDEST JUMPDEST POP POP DUP1 DUP1 PUSH1 0x1 ADD SWAP2 POP POP PUSH2 0x1A1 JUMP JUMPDEST POP TIMESTAMP PUSH1 0x2 DUP2 SWAP1 SSTORE POP POP JUMPDEST JUMP JUMPDEST PUSH32 0x0 DUP2 JUMP JUMPDEST PUSH1 0x40 MLOAD DUP1 PUSH1 0x60 ADD PUSH1 0x40 MSTORE DUP1 DUP5 DUP2 MSTORE PUSH1 0x20 ADD DUP4 DUP2 MSTORE PUSH1 0x20 ADD DUP3 DUP2 MSTORE POP PUSH0 DUP1 CALLER PUSH20 0xFFFFFFFFFFFFFFFFFFFFFFFFFFFFFFFFFFFFFFFF AND PUSH20 0xFFFFFFFFFFFFFFFFFFFFFFFFFFFFFFFFFFFFFFFF AND DUP2 MSTORE PUSH1 0x20 ADD SWAP1 DUP2 MSTORE PUSH1 0x20 ADD PUSH0 KECCAK256 PUSH0 DUP3 ADD MLOAD DUP2 PUSH0 ADD SSTORE PUSH1 0x20 DUP3 ADD MLOAD DUP2 PUSH1 0x1 ADD SSTORE PUSH1 0x40 DUP3 ADD MLOAD DUP2 PUSH1 0x2 ADD SSTORE SWAP1 POP POP PUSH1 0x1 CALLER SWAP1 DUP1 PUSH1 0x1 DUP2 SLOAD ADD DUP1 DUP3 SSTORE DUP1 SWAP2 POP POP PUSH1 0x1 SWAP1 SUB SWAP1 PUSH0 MSTORE PUSH1 0x20 PUSH0 KECCAK256 ADD PUSH0 SWAP1 SWAP2 SWAP1 SWAP2 SWAP1 SWAP2 PUSH2 0x100 EXP DUP2 SLOAD DUP2 PUSH20 0xFFFFFFFFFFFFFFFFFFFFFFFFFFFFFFFFFFFFFFFF MUL NOT AND SWAP1 DUP4 PUSH20 0xFFFFFFFFFFFFFFFFFFFFFFFFFFFFFFFFFFFFFFFF AND MUL OR SWAP1 SSTORE POP POP POP POP JUMP JUMPDEST PUSH0 DUP1 PUSH32 0x0 PUSH20 0xFFFFFFFFFFFFFFFFFFFFFFFFFFFFFFFFFFFFFFFF AND PUSH4 0xFEAF968C PUSH1 0x40 MLOAD DUP2 PUSH4 0xFFFFFFFF AND PUSH1 0xE0 SHL DUP2 MSTORE PUSH1 0x4 ADD PUSH1 0xA0 PUSH1 0x40 MLOAD DUP1 DUP4 SUB DUP2 DUP7 GAS STATICCALL ISZERO DUP1 ISZERO PUSH2 0x40C JUMPI RETURNDATASIZE PUSH0 DUP1 RETURNDATACOPY RETURNDATASIZE PUSH0 REVERT JUMPDEST POP POP POP POP PUSH1 0x40 MLOAD RETURNDATASIZE PUSH1 0x1F NOT PUSH1 0x1F DUP3 ADD AND DUP3 ADD DUP1 PUSH1 0x40 MSTORE POP DUP2 ADD SWAP1 PUSH2 0x430 SWAP2 SWAP1 PUSH2 0xF1F JUMP JUMPDEST POP POP POP SWAP2 POP POP PUSH4 0x5F5E100 DUP2 PUSH2 0x446 SWAP2 SWAP1 PUSH2 0xF96 JUMP JUMPDEST SWAP2 POP POP SWAP1 JUMP JUMPDEST PUSH32 0x0 DUP2 JUMP JUMPDEST PUSH0 PUSH1 0x20 MSTORE DUP1 PUSH0 MSTORE PUSH1 0x40 PUSH0 KECCAK256 PUSH0 SWAP2 POP SWAP1 POP DUP1 PUSH0 ADD SLOAD SWAP1 DUP1 PUSH1 0x1 ADD SLOAD SWAP1 DUP1 PUSH1 0x2 ADD SLOAD SWAP1 POP DUP4 JUMP JUMPDEST PUSH32 0x0 DUP2 JUMP JUMPDEST PUSH0 PUSH32 0x0 PUSH20 0xFFFFFFFFFFFFFFFFFFFFFFFFFFFFFFFFFFFFFFFF AND DUP4 DUP4 DUP6 PUSH1 0x40 MLOAD PUSH1 0x24 ADD PUSH2 0x506 SWAP4 SWAP3 SWAP2 SWAP1 PUSH2 0xFD7 JUMP JUMPDEST PUSH1 0x40 MLOAD PUSH1 0x20 DUP2 DUP4 SUB SUB DUP2 MSTORE SWAP1 PUSH1 0x40 MSTORE PUSH32 0x80500D2000000000000000000000000000000000000000000000000000000000 PUSH28 0xFFFFFFFFFFFFFFFFFFFFFFFFFFFFFFFFFFFFFFFFFFFFFFFFFFFFFFFF NOT AND PUSH1 0x20 DUP3 ADD DUP1 MLOAD PUSH28 0xFFFFFFFFFFFFFFFFFFFFFFFFFFFFFFFFFFFFFFFFFFFFFFFFFFFFFFFF DUP4 DUP2 DUP4 AND OR DUP4 MSTORE POP POP POP POP PUSH1 0x40 MLOAD PUSH2 0x590 SWAP2 SWAP1 PUSH2 0x105E JUMP JUMPDEST PUSH0 PUSH1 0x40 MLOAD DUP1 DUP4 SUB DUP2 PUSH0 DUP7 GAS CALL SWAP2 POP POP RETURNDATASIZE DUP1 PUSH0 DUP2 EQ PUSH2 0x5C9 JUMPI PUSH1 0x40 MLOAD SWAP2 POP PUSH1 0x1F NOT PUSH1 0x3F RETURNDATASIZE ADD AND DUP3 ADD PUSH1 0x40 MSTORE RETURNDATASIZE DUP3 MSTORE RETURNDATASIZE PUSH0 PUSH1 0x20 DUP5 ADD RETURNDATACOPY PUSH2 0x5CE JUMP JUMPDEST PUSH1 0x60 SWAP2 POP JUMPDEST POP POP SWAP1 POP DUP1 PUSH2 0x612 JUMPI PUSH1 0x40 MLOAD PUSH32 0x8C379A000000000000000000000000000000000000000000000000000000000 DUP2 MSTORE PUSH1 0x4 ADD PUSH2 0x609 SWAP1 PUSH2 0x10CE JUMP JUMPDEST PUSH1 0x40 MLOAD DUP1 SWAP2 SUB SWAP1 REVERT JUMPDEST PUSH0 PUSH1 0x40 MLOAD DUP1 PUSH2 0x100 ADD PUSH1 0x40 MSTORE DUP1 PUSH0 PUSH20 0xFFFFFFFFFFFFFFFFFFFFFFFFFFFFFFFFFFFFFFFF AND DUP2 MSTORE PUSH1 0x20 ADD PUSH32 0x0 PUSH20 0xFFFFFFFFFFFFFFFFFFFFFFFFFFFFFFFFFFFFFFFF AND DUP2 MSTORE PUSH1 0x20 ADD PUSH2 0x3A98 PUSH3 0xFFFFFF AND DUP2 MSTORE PUSH1 0x20 ADD DUP6 PUSH20 0xFFFFFFFFFFFFFFFFFFFFFFFFFFFFFFFFFFFFFFFF AND DUP2 MSTORE PUSH1 0x20 ADD TIMESTAMP DUP2 MSTORE PUSH1 0x20 ADD DUP5 DUP2 MSTORE PUSH1 0x20 ADD PUSH0 DUP2 MSTORE PUSH1 0x20 ADD PUSH0 PUSH20 0xFFFFFFFFFFFFFFFFFFFFFFFFFFFFFFFFFFFFFFFF AND DUP2 MSTORE POP SWAP1 POP PUSH32 0x0 PUSH20 0xFFFFFFFFFFFFFFFFFFFFFFFFFFFFFFFFFFFFFFFF AND PUSH4 0x414BF389 DUP3 PUSH1 0x40 MLOAD DUP3 PUSH4 0xFFFFFFFF AND PUSH1 0xE0 SHL DUP2 MSTORE PUSH1 0x4 ADD PUSH2 0x727 SWAP2 SWAP1 PUSH2 0x11C8 JUMP JUMPDEST PUSH1 0x20 PUSH1 0x40 MLOAD DUP1 DUP4 SUB DUP2 PUSH0 DUP8 GAS CALL ISZERO DUP1 ISZERO PUSH2 0x743 JUMPI RETURNDATASIZE PUSH0 DUP1 RETURNDATACOPY RETURNDATASIZE PUSH0 REVERT JUMPDEST POP POP POP POP PUSH1 0x40 MLOAD RETURNDATASIZE PUSH1 0x1F NOT PUSH1 0x1F DUP3 ADD AND DUP3 ADD DUP1 PUSH1 0x40 MSTORE POP DUP2 ADD SWAP1 PUSH2 0x767 SWAP2 SWAP1 PUSH2 0x11E2 JUMP JUMPDEST POP POP POP POP POP JUMP JUMPDEST PUSH0 PUSH32 0x0 PUSH20 0xFFFFFFFFFFFFFFFFFFFFFFFFFFFFFFFFFFFFFFFF AND PUSH4 0x70A08231 DUP4 PUSH1 0x40 MLOAD DUP3 PUSH4 0xFFFFFFFF AND PUSH1 0xE0 SHL DUP2 MSTORE PUSH1 0x4 ADD PUSH2 0x7C8 SWAP2 SWAP1 PUSH2 0xC0D JUMP JUMPDEST PUSH1 0x20 PUSH1 0x40 MLOAD DUP1 DUP4 SUB DUP2 DUP7 GAS STATICCALL ISZERO DUP1 ISZERO PUSH2 0x7E3 JUMPI RETURNDATASIZE PUSH0 DUP1 RETURNDATACOPY RETURNDATASIZE PUSH0 REVERT JUMPDEST POP POP POP POP PUSH1 0x40 MLOAD RETURNDATASIZE PUSH1 0x1F NOT PUSH1 0x1F DUP3 ADD AND DUP3 ADD DUP1 PUSH1 0x40 MSTORE POP DUP2 ADD SWAP1 PUSH2 0x807 SWAP2 SWAP1 PUSH2 0x11E2 JUMP JUMPDEST SWAP1 POP PUSH32 0x0 PUSH20 0xFFFFFFFFFFFFFFFFFFFFFFFFFFFFFFFFFFFFFFFF AND PUSH4 0x95EA7B3 PUSH32 0x0 DUP4 PUSH1 0x40 MLOAD DUP4 PUSH4 0xFFFFFFFF AND PUSH1 0xE0 SHL DUP2 MSTORE PUSH1 0x4 ADD PUSH2 0x884 SWAP3 SWAP2 SWAP1 PUSH2 0x120D JUMP JUMPDEST PUSH1 0x20 PUSH1 0x40 MLOAD DUP1 DUP4 SUB DUP2 PUSH0 DUP8 GAS CALL ISZERO DUP1 ISZERO PUSH2 0x8A0 JUMPI RETURNDATASIZE PUSH0 DUP1 RETURNDATACOPY RETURNDATASIZE PUSH0 REVERT JUMPDEST POP POP POP POP PUSH1 0x40 MLOAD RETURNDATASIZE PUSH1 0x1F NOT PUSH1 0x1F DUP3 ADD AND DUP3 ADD DUP1 PUSH1 0x40 MSTORE POP DUP2 ADD SWAP1 PUSH2 0x8C4 SWAP2 SWAP1 PUSH2 0x1269 JUMP JUMPDEST POP PUSH0 PUSH1 0x40 MLOAD DUP1 PUSH2 0x100 ADD PUSH1 0x40 MSTORE DUP1 PUSH32 0x0 PUSH20 0xFFFFFFFFFFFFFFFFFFFFFFFFFFFFFFFFFFFFFFFF AND DUP2 MSTORE PUSH1 0x20 ADD PUSH0 PUSH20 0xFFFFFFFFFFFFFFFFFFFFFFFFFFFFFFFFFFFFFFFF AND DUP2 MSTORE PUSH1 0x20 ADD PUSH2 0x3A98 PUSH3 0xFFFFFF AND DUP2 MSTORE PUSH1 0x20 ADD DUP5 PUSH20 0xFFFFFFFFFFFFFFFFFFFFFFFFFFFFFFFFFFFFFFFF AND DUP2 MSTORE PUSH1 0x20 ADD TIMESTAMP DUP2 MSTORE PUSH1 0x20 ADD DUP4 DUP2 MSTORE PUSH1 0x20 ADD PUSH32 0xFFFFFFFFFFFFFFFFFFFFFFFFFFFFFFFFFFFFFFFFFFFFFFFFFFFFFFFFFFFFFFFF DUP2 MSTORE PUSH1 0x20 ADD PUSH0 PUSH20 0xFFFFFFFFFFFFFFFFFFFFFFFFFFFFFFFFFFFFFFFF AND DUP2 MSTORE POP SWAP1 POP PUSH32 0x0 PUSH20 0xFFFFFFFFFFFFFFFFFFFFFFFFFFFFFFFFFFFFFFFF AND PUSH4 0xDB3E2198 DUP3 PUSH1 0x40 MLOAD DUP3 PUSH4 0xFFFFFFFF AND PUSH1 0xE0 SHL DUP2 MSTORE PUSH1 0x4 ADD PUSH2 0x9FA SWAP2 SWAP1 PUSH2 0x1334 JUMP JUMPDEST PUSH1 0x20 PUSH1 0x40 MLOAD DUP1 DUP4 SUB DUP2 PUSH0 DUP8 GAS CALL ISZERO DUP1 ISZERO PUSH2 0xA16 JUMPI RETURNDATASIZE PUSH0 DUP1 RETURNDATACOPY RETURNDATASIZE PUSH0 REVERT JUMPDEST POP POP POP POP PUSH1 0x40 MLOAD RETURNDATASIZE PUSH1 0x1F NOT PUSH1 0x1F DUP3 ADD AND DUP3 ADD DUP1 PUSH1 0x40 MSTORE POP DUP2 ADD SWAP1 PUSH2 0xA3A SWAP2 SWAP1 PUSH2 0x11E2 JUMP JUMPDEST POP PUSH0 PUSH32 0x0 PUSH20 0xFFFFFFFFFFFFFFFFFFFFFFFFFFFFFFFFFFFFFFFF AND DUP5 PUSH0 PUSH1 0x40 MLOAD PUSH1 0x24 ADD PUSH2 0xA86 SWAP3 SWAP2 SWAP1 PUSH2 0x1393 JUMP JUMPDEST PUSH1 0x40 MLOAD PUSH1 0x20 DUP2 DUP4 SUB SUB DUP2 MSTORE SWAP1 PUSH1 0x40 MSTORE PUSH32 0x58C22BE700000000000000000000000000000000000000000000000000000000 PUSH28 0xFFFFFFFFFFFFFFFFFFFFFFFFFFFFFFFFFFFFFFFFFFFFFFFFFFFFFFFF NOT AND PUSH1 0x20 DUP3 ADD DUP1 MLOAD PUSH28 0xFFFFFFFFFFFFFFFFFFFFFFFFFFFFFFFFFFFFFFFFFFFFFFFFFFFFFFFF DUP4 DUP2 DUP4 AND OR DUP4 MSTORE POP POP POP POP PUSH1 0x40 MLOAD PUSH2 0xB10 SWAP2 SWAP1 PUSH2 0x105E JUMP JUMPDEST PUSH0 PUSH1 0x40 MLOAD DUP1 DUP4 SUB DUP2 PUSH0 DUP7 GAS CALL SWAP2 POP POP RETURNDATASIZE DUP1 PUSH0 DUP2 EQ PUSH2 0xB49 JUMPI PUSH1 0x40 MLOAD SWAP2 POP PUSH1 0x1F NOT PUSH1 0x3F RETURNDATASIZE ADD AND DUP3 ADD PUSH1 0x40 MSTORE RETURNDATASIZE DUP3 MSTORE RETURNDATASIZE PUSH0 PUSH1 0x20 DUP5 ADD RETURNDATACOPY PUSH2 0xB4E JUMP JUMPDEST PUSH1 0x60 SWAP2 POP JUMPDEST POP POP SWAP1 POP DUP1 PUSH2 0xB92 JUMPI PUSH1 0x40 MLOAD PUSH32 0x8C379A000000000000000000000000000000000000000000000000000000000 DUP2 MSTORE PUSH1 0x4 ADD PUSH2 0xB89 SWAP1 PUSH2 0x1404 JUMP JUMPDEST PUSH1 0x40 MLOAD DUP1 SWAP2 SUB SWAP1 REVERT JUMPDEST POP POP POP POP JUMP JUMPDEST PUSH0 PUSH3 0xFFFFFF DUP3 AND SWAP1 POP SWAP2 SWAP1 POP JUMP JUMPDEST PUSH2 0xBAF DUP2 PUSH2 0xB98 JUMP JUMPDEST DUP3 MSTORE POP POP JUMP JUMPDEST PUSH0 PUSH1 0x20 DUP3 ADD SWAP1 POP PUSH2 0xBC8 PUSH0 DUP4 ADD DUP5 PUSH2 0xBA6 JUMP JUMPDEST SWAP3 SWAP2 POP POP JUMP JUMPDEST PUSH0 PUSH20 0xFFFFFFFFFFFFFFFFFFFFFFFFFFFFFFFFFFFFFFFF DUP3 AND SWAP1 POP SWAP2 SWAP1 POP JUMP JUMPDEST PUSH0 PUSH2 0xBF7 DUP3 PUSH2 0xBCE JUMP JUMPDEST SWAP1 POP SWAP2 SWAP1 POP JUMP JUMPDEST PUSH2 0xC07 DUP2 PUSH2 0xBED JUMP JUMPDEST DUP3 MSTORE POP POP JUMP JUMPDEST PUSH0 PUSH1 0x20 DUP3 ADD SWAP1 POP PUSH2 0xC20 PUSH0 DUP4 ADD DUP5 PUSH2 0xBFE JUMP JUMPDEST SWAP3 SWAP2 POP POP JUMP JUMPDEST PUSH0 DUP1 REVERT JUMPDEST PUSH0 DUP2 SWAP1 POP SWAP2 SWAP1 POP JUMP JUMPDEST PUSH2 0xC3C DUP2 PUSH2 0xC2A JUMP JUMPDEST DUP2 EQ PUSH2 0xC46 JUMPI PUSH0 DUP1 REVERT JUMPDEST POP JUMP JUMPDEST PUSH0 DUP2 CALLDATALOAD SWAP1 POP PUSH2 0xC57 DUP2 PUSH2 0xC33 JUMP JUMPDEST SWAP3 SWAP2 POP POP JUMP JUMPDEST PUSH0 DUP1 PUSH0 PUSH1 0x60 DUP5 DUP7 SUB SLT ISZERO PUSH2 0xC74 JUMPI PUSH2 0xC73 PUSH2 0xC26 JUMP JUMPDEST JUMPDEST PUSH0 PUSH2 0xC81 DUP7 DUP3 DUP8 ADD PUSH2 0xC49 JUMP JUMPDEST SWAP4 POP POP PUSH1 0x20 PUSH2 0xC92 DUP7 DUP3 DUP8 ADD PUSH2 0xC49 JUMP JUMPDEST SWAP3 POP POP PUSH1 0x40 PUSH2 0xCA3 DUP7 DUP3 DUP8 ADD PUSH2 0xC49 JUMP JUMPDEST SWAP2 POP POP SWAP3 POP SWAP3 POP SWAP3 JUMP JUMPDEST PUSH2 0xCB6 DUP2 PUSH2 0xC2A JUMP JUMPDEST DUP3 MSTORE POP POP JUMP JUMPDEST PUSH0 PUSH1 0x20 DUP3 ADD SWAP1 POP PUSH2 0xCCF PUSH0 DUP4 ADD DUP5 PUSH2 0xCAD JUMP JUMPDEST SWAP3 SWAP2 POP POP JUMP JUMPDEST PUSH0 DUP2 SWAP1 POP SWAP2 SWAP1 POP JUMP JUMPDEST PUSH0 PUSH2 0xCF8 PUSH2 0xCF3 PUSH2 0xCEE DUP5 PUSH2 0xBCE JUMP JUMPDEST PUSH2 0xCD5 JUMP JUMPDEST PUSH2 0xBCE JUMP JUMPDEST SWAP1 POP SWAP2 SWAP1 POP JUMP JUMPDEST PUSH0 PUSH2 0xD09 DUP3 PUSH2 0xCDE JUMP JUMPDEST SWAP1 POP SWAP2 SWAP1 POP JUMP JUMPDEST PUSH0 PUSH2 0xD1A DUP3 PUSH2 0xCFF JUMP JUMPDEST SWAP1 POP SWAP2 SWAP1 POP JUMP JUMPDEST PUSH2 0xD2A DUP2 PUSH2 0xD10 JUMP JUMPDEST DUP3 MSTORE POP POP JUMP JUMPDEST PUSH0 PUSH1 0x20 DUP3 ADD SWAP1 POP PUSH2 0xD43 PUSH0 DUP4 ADD DUP5 PUSH2 0xD21 JUMP JUMPDEST SWAP3 SWAP2 POP POP JUMP JUMPDEST PUSH2 0xD52 DUP2 PUSH2 0xBED JUMP JUMPDEST DUP2 EQ PUSH2 0xD5C JUMPI PUSH0 DUP1 REVERT JUMPDEST POP JUMP JUMPDEST PUSH0 DUP2 CALLDATALOAD SWAP1 POP PUSH2 0xD6D DUP2 PUSH2 0xD49 JUMP JUMPDEST SWAP3 SWAP2 POP POP JUMP JUMPDEST PUSH0 PUSH1 0x20 DUP3 DUP5 SUB SLT ISZERO PUSH2 0xD88 JUMPI PUSH2 0xD87 PUSH2 0xC26 JUMP JUMPDEST JUMPDEST PUSH0 PUSH2 0xD95 DUP5 DUP3 DUP6 ADD PUSH2 0xD5F JUMP JUMPDEST SWAP2 POP POP SWAP3 SWAP2 POP POP JUMP JUMPDEST PUSH0 PUSH1 0x60 DUP3 ADD SWAP1 POP PUSH2 0xDB1 PUSH0 DUP4 ADD DUP7 PUSH2 0xCAD JUMP JUMPDEST PUSH2 0xDBE PUSH1 0x20 DUP4 ADD DUP6 PUSH2 0xCAD JUMP JUMPDEST PUSH2 0xDCB PUSH1 0x40 DUP4 ADD DUP5 PUSH2 0xCAD JUMP JUMPDEST SWAP5 SWAP4 POP POP POP POP JUMP JUMPDEST PUSH0 PUSH2 0xDDD DUP3 PUSH2 0xCFF JUMP JUMPDEST SWAP1 POP SWAP2 SWAP1 POP JUMP JUMPDEST PUSH2 0xDED DUP2 PUSH2 0xDD3 JUMP JUMPDEST DUP3 MSTORE POP POP JUMP JUMPDEST PUSH0 PUSH1 0x20 DUP3 ADD SWAP1 POP PUSH2 0xE06 PUSH0 DUP4 ADD DUP5 PUSH2 0xDE4 JUMP JUMPDEST SWAP3 SWAP2 POP POP JUMP JUMPDEST PUSH32 0x4E487B7100000000000000000000000000000000000000000000000000000000 PUSH0 MSTORE PUSH1 0x11 PUSH1 0x4 MSTORE PUSH1 0x24 PUSH0 REVERT JUMPDEST PUSH0 PUSH2 0xE43 DUP3 PUSH2 0xC2A JUMP JUMPDEST SWAP2 POP PUSH2 0xE4E DUP4 PUSH2 0xC2A JUMP JUMPDEST SWAP3 POP DUP3 DUP3 SUB SWAP1 POP DUP2 DUP2 GT ISZERO PUSH2 0xE66 JUMPI PUSH2 0xE65 PUSH2 0xE0C JUMP JUMPDEST JUMPDEST SWAP3 SWAP2 POP POP JUMP JUMPDEST PUSH32 0x4E487B7100000000000000000000000000000000000000000000000000000000 PUSH0 MSTORE PUSH1 0x32 PUSH1 0x4 MSTORE PUSH1 0x24 PUSH0 REVERT JUMPDEST PUSH0 PUSH10 0xFFFFFFFFFFFFFFFFFFFF DUP3 AND SWAP1 POP SWAP2 SWAP1 POP JUMP JUMPDEST PUSH2 0xEB7 DUP2 PUSH2 0xE99 JUMP JUMPDEST DUP2 EQ PUSH2 0xEC1 JUMPI PUSH0 DUP1 REVERT JUMPDEST POP JUMP JUMPDEST PUSH0 DUP2 MLOAD SWAP1 POP PUSH2 0xED2 DUP2 PUSH2 0xEAE JUMP JUMPDEST SWAP3 SWAP2 POP POP JUMP JUMPDEST PUSH0 DUP2 SWAP1 POP SWAP2 SWAP1 POP JUMP JUMPDEST PUSH2 0xEEA DUP2 PUSH2 0xED8 JUMP JUMPDEST DUP2 EQ PUSH2 0xEF4 JUMPI PUSH0 DUP1 REVERT JUMPDEST POP JUMP JUMPDEST PUSH0 DUP2 MLOAD SWAP1 POP PUSH2 0xF05 DUP2 PUSH2 0xEE1 JUMP JUMPDEST SWAP3 SWAP2 POP POP JUMP JUMPDEST PUSH0 DUP2 MLOAD SWAP1 POP PUSH2 0xF19 DUP2 PUSH2 0xC33 JUMP JUMPDEST SWAP3 SWAP2 POP POP JUMP JUMPDEST PUSH0 DUP1 PUSH0 DUP1 PUSH0 PUSH1 0xA0 DUP7 DUP9 SUB SLT ISZERO PUSH2 0xF38 JUMPI PUSH2 0xF37 PUSH2 0xC26 JUMP JUMPDEST JUMPDEST PUSH0 PUSH2 0xF45 DUP9 DUP3 DUP10 ADD PUSH2 0xEC4 JUMP JUMPDEST SWAP6 POP POP PUSH1 0x20 PUSH2 0xF56 DUP9 DUP3 DUP10 ADD PUSH2 0xEF7 JUMP JUMPDEST SWAP5 POP POP PUSH1 0x40 PUSH2 0xF67 DUP9 DUP3 DUP10 ADD PUSH2 0xF0B JUMP JUMPDEST SWAP4 POP POP PUSH1 0x60 PUSH2 0xF78 DUP9 DUP3 DUP10 ADD PUSH2 0xF0B JUMP JUMPDEST SWAP3 POP POP PUSH1 0x80 PUSH2 0xF89 DUP9 DUP3 DUP10 ADD PUSH2 0xEC4 JUMP JUMPDEST SWAP2 POP POP SWAP3 SWAP6 POP SWAP3 SWAP6 SWAP1 SWAP4 POP JUMP JUMPDEST PUSH0 PUSH2 0xFA0 DUP3 PUSH2 0xC2A JUMP JUMPDEST SWAP2 POP PUSH2 0xFAB DUP4 PUSH2 0xC2A JUMP JUMPDEST SWAP3 POP DUP3 DUP3 MUL PUSH2 0xFB9 DUP2 PUSH2 0xC2A JUMP JUMPDEST SWAP2 POP DUP3 DUP3 DIV DUP5 EQ DUP4 ISZERO OR PUSH2 0xFD0 JUMPI PUSH2 0xFCF PUSH2 0xE0C JUMP JUMPDEST JUMPDEST POP SWAP3 SWAP2 POP POP JUMP JUMPDEST PUSH0 PUSH1 0x60 DUP3 ADD SWAP1 POP PUSH2 0xFEA PUSH0 DUP4 ADD DUP7 PUSH2 0xBFE JUMP JUMPDEST PUSH2 0xFF7 PUSH1 0x20 DUP4 ADD DUP6 PUSH2 0xCAD JUMP JUMPDEST PUSH2 0x1004 PUSH1 0x40 DUP4 ADD DUP5 PUSH2 0xBFE JUMP JUMPDEST SWAP5 SWAP4 POP POP POP POP JUMP JUMPDEST PUSH0 DUP2 MLOAD SWAP1 POP SWAP2 SWAP1 POP JUMP JUMPDEST PUSH0 DUP2 SWAP1 POP SWAP3 SWAP2 POP POP JUMP JUMPDEST DUP3 DUP2 DUP4 MCOPY PUSH0 DUP4 DUP4 ADD MSTORE POP POP POP JUMP JUMPDEST PUSH0 PUSH2 0x1038 DUP3 PUSH2 0x100C JUMP JUMPDEST PUSH2 0x1042 DUP2 DUP6 PUSH2 0x1016 JUMP JUMPDEST SWAP4 POP PUSH2 0x1052 DUP2 DUP6 PUSH1 0x20 DUP7 ADD PUSH2 0x1020 JUMP JUMPDEST DUP1 DUP5 ADD SWAP2 POP POP SWAP3 SWAP2 POP POP JUMP JUMPDEST PUSH0 PUSH2 0x1069 DUP3 DUP5 PUSH2 0x102E JUMP JUMPDEST SWAP2 POP DUP2 SWAP1 POP SWAP3 SWAP2 POP POP JUMP JUMPDEST PUSH0 DUP3 DUP3 MSTORE PUSH1 0x20 DUP3 ADD SWAP1 POP SWAP3 SWAP2 POP POP JUMP JUMPDEST PUSH32 0x5769746864726177616C2066726F6D2041617665206661696C65640000000000 PUSH0 DUP3 ADD MSTORE POP JUMP JUMPDEST PUSH0 PUSH2 0x10B8 PUSH1 0x1B DUP4 PUSH2 0x1074 JUMP JUMPDEST SWAP2 POP PUSH2 0x10C3 DUP3 PUSH2 0x1084 JUMP JUMPDEST PUSH1 0x20 DUP3 ADD SWAP1 POP SWAP2 SWAP1 POP JUMP JUMPDEST PUSH0 PUSH1 0x20 DUP3 ADD SWAP1 POP DUP2 DUP2 SUB PUSH0 DUP4 ADD MSTORE PUSH2 0x10E5 DUP2 PUSH2 0x10AC JUMP JUMPDEST SWAP1 POP SWAP2 SWAP1 POP JUMP JUMPDEST PUSH2 0x10F5 DUP2 PUSH2 0xBED JUMP JUMPDEST DUP3 MSTORE POP POP JUMP JUMPDEST PUSH2 0x1104 DUP2 PUSH2 0xB98 JUMP JUMPDEST DUP3 MSTORE POP POP JUMP JUMPDEST PUSH2 0x1113 DUP2 PUSH2 0xC2A JUMP JUMPDEST DUP3 MSTORE POP POP JUMP JUMPDEST PUSH2 0x1122 DUP2 PUSH2 0xBCE JUMP JUMPDEST DUP3 MSTORE POP POP JUMP JUMPDEST PUSH2 0x100 DUP3 ADD PUSH0 DUP3 ADD MLOAD PUSH2 0x113D PUSH0 DUP6 ADD DUP3 PUSH2 0x10EC JUMP JUMPDEST POP PUSH1 0x20 DUP3 ADD MLOAD PUSH2 0x1150 PUSH1 0x20 DUP6 ADD DUP3 PUSH2 0x10EC JUMP JUMPDEST POP PUSH1 0x40 DUP3 ADD MLOAD PUSH2 0x1163 PUSH1 0x40 DUP6 ADD DUP3 PUSH2 0x10FB JUMP JUMPDEST POP PUSH1 0x60 DUP3 ADD MLOAD PUSH2 0x1176 PUSH1 0x60 DUP6 ADD DUP3 PUSH2 0x10EC JUMP JUMPDEST POP PUSH1 0x80 DUP3 ADD MLOAD PUSH2 0x1189 PUSH1 0x80 DUP6 ADD DUP3 PUSH2 0x110A JUMP JUMPDEST POP PUSH1 0xA0 DUP3 ADD MLOAD PUSH2 0x119C PUSH1 0xA0 DUP6 ADD DUP3 PUSH2 0x110A JUMP JUMPDEST POP PUSH1 0xC0 DUP3 ADD MLOAD PUSH2 0x11AF PUSH1 0xC0 DUP6 ADD DUP3 PUSH2 0x110A JUMP JUMPDEST POP PUSH1 0xE0 DUP3 ADD MLOAD PUSH2 0x11C2 PUSH1 0xE0 DUP6 ADD DUP3 PUSH2 0x1119 JUMP JUMPDEST POP POP POP POP JUMP JUMPDEST PUSH0 PUSH2 0x100 DUP3 ADD SWAP1 POP PUSH2 0x11DC PUSH0 DUP4 ADD DUP5 PUSH2 0x1128 JUMP JUMPDEST SWAP3 SWAP2 POP POP JUMP JUMPDEST PUSH0 PUSH1 0x20 DUP3 DUP5 SUB SLT ISZERO PUSH2 0x11F7 JUMPI PUSH2 0x11F6 PUSH2 0xC26 JUMP JUMPDEST JUMPDEST PUSH0 PUSH2 0x1204 DUP5 DUP3 DUP6 ADD PUSH2 0xF0B JUMP JUMPDEST SWAP2 POP POP SWAP3 SWAP2 POP POP JUMP JUMPDEST PUSH0 PUSH1 0x40 DUP3 ADD SWAP1 POP PUSH2 0x1220 PUSH0 DUP4 ADD DUP6 PUSH2 0xBFE JUMP JUMPDEST PUSH2 0x122D PUSH1 0x20 DUP4 ADD DUP5 PUSH2 0xCAD JUMP JUMPDEST SWAP4 SWAP3 POP POP POP JUMP JUMPDEST PUSH0 DUP2 ISZERO ISZERO SWAP1 POP SWAP2 SWAP1 POP JUMP JUMPDEST PUSH2 0x1248 DUP2 PUSH2 0x1234 JUMP JUMPDEST DUP2 EQ PUSH2 0x1252 JUMPI PUSH0 DUP1 REVERT JUMPDEST POP JUMP JUMPDEST PUSH0 DUP2 MLOAD SWAP1 POP PUSH2 0x1263 DUP2 PUSH2 0x123F JUMP JUMPDEST SWAP3 SWAP2 POP POP JUMP JUMPDEST PUSH0 PUSH1 0x20 DUP3 DUP5 SUB SLT ISZERO PUSH2 0x127E JUMPI PUSH2 0x127D PUSH2 0xC26 JUMP JUMPDEST JUMPDEST PUSH0 PUSH2 0x128B DUP5 DUP3 DUP6 ADD PUSH2 0x1255 JUMP JUMPDEST SWAP2 POP POP SWAP3 SWAP2 POP POP JUMP JUMPDEST PUSH2 0x100 DUP3 ADD PUSH0 DUP3 ADD MLOAD PUSH2 0x12A9 PUSH0 DUP6 ADD DUP3 PUSH2 0x10EC JUMP JUMPDEST POP PUSH1 0x20 DUP3 ADD MLOAD PUSH2 0x12BC PUSH1 0x20 DUP6 ADD DUP3 PUSH2 0x10EC JUMP JUMPDEST POP PUSH1 0x40 DUP3 ADD MLOAD PUSH2 0x12CF PUSH1 0x40 DUP6 ADD DUP3 PUSH2 0x10FB JUMP JUMPDEST POP PUSH1 0x60 DUP3 ADD MLOAD PUSH2 0x12E2 PUSH1 0x60 DUP6 ADD DUP3 PUSH2 0x10EC JUMP JUMPDEST POP PUSH1 0x80 DUP3 ADD MLOAD PUSH2 0x12F5 PUSH1 0x80 DUP6 ADD DUP3 PUSH2 0x110A JUMP JUMPDEST POP PUSH1 0xA0 DUP3 ADD MLOAD PUSH2 0x1308 PUSH1 0xA0 DUP6 ADD DUP3 PUSH2 0x110A JUMP JUMPDEST POP PUSH1 0xC0 DUP3 ADD MLOAD PUSH2 0x131B PUSH1 0xC0 DUP6 ADD DUP3 PUSH2 0x110A JUMP JUMPDEST POP PUSH1 0xE0 DUP3 ADD MLOAD PUSH2 0x132E PUSH1 0xE0 DUP6 ADD DUP3 PUSH2 0x1119 JUMP JUMPDEST POP POP POP POP JUMP JUMPDEST PUSH0 PUSH2 0x100 DUP3 ADD SWAP1 POP PUSH2 0x1348 PUSH0 DUP4 ADD DUP5 PUSH2 0x1294 JUMP JUMPDEST SWAP3 SWAP2 POP POP JUMP JUMPDEST PUSH0 DUP2 SWAP1 POP SWAP2 SWAP1 POP JUMP JUMPDEST PUSH0 PUSH1 0xFF DUP3 AND SWAP1 POP SWAP2 SWAP1 POP JUMP JUMPDEST PUSH0 PUSH2 0x137D PUSH2 0x1378 PUSH2 0x1373 DUP5 PUSH2 0x134E JUMP JUMPDEST PUSH2 0xCD5 JUMP JUMPDEST PUSH2 0x1357 JUMP JUMPDEST SWAP1 POP SWAP2 SWAP1 POP JUMP JUMPDEST PUSH2 0x138D DUP2 PUSH2 0x1363 JUMP JUMPDEST DUP3 MSTORE POP POP JUMP JUMPDEST PUSH0 PUSH1 0x40 DUP3 ADD SWAP1 POP PUSH2 0x13A6 PUSH0 DUP4 ADD DUP6 PUSH2 0xBFE JUMP JUMPDEST PUSH2 0x13B3 PUSH1 0x20 DUP4 ADD DUP5 PUSH2 0x1384 JUMP JUMPDEST SWAP4 SWAP3 POP POP POP JUMP JUMPDEST PUSH32 0x4465706F73697420746F2041617665206661696C656400000000000000000000 PUSH0 DUP3 ADD MSTORE POP JUMP JUMPDEST PUSH0 PUSH2 0x13EE PUSH1 0x16 DUP4 PUSH2 0x1074 JUMP JUMPDEST SWAP2 POP PUSH2 0x13F9 DUP3 PUSH2 0x13BA JUMP JUMPDEST PUSH1 0x20 DUP3 ADD SWAP1 POP SWAP2 SWAP1 POP JUMP JUMPDEST PUSH0 PUSH1 0x20 DUP3 ADD SWAP1 POP DUP2 DUP2 SUB PUSH0 DUP4 ADD MSTORE PUSH2 0x141B DUP2 PUSH2 0x13E2 JUMP JUMPDEST SWAP1 POP SWAP2 SWAP1 POP JUMP INVALID LOG2 PUSH5 0x6970667358 0x22 SLT KECCAK256 DUP9 0xA5 EXTCODEHASH SSTORE SWAP9 PUSH27 0x83756752F9242C1FEBA7B67CCB895A90570626CDE1B774F2EB6264 PUSH20 0x6F6C634300081900330000000000000000000000 "
				},
				"gasEstimates": {
					"creation": {
						"codeDepositCost": "1041600",
						"executionCost": "infinite",
						"totalCost": "infinite"
					},
					"external": {
						"aaveGateway()": "infinite",
						"checkStatus()": "infinite",
						"getEthUsdPrice()": "infinite",
						"poolFee()": "332",
						"s_userProfile(address)": "infinite",
						"setUserProfile(uint256,uint256,uint256)": "infinite",
						"swapRouter()": "infinite",
						"usdtToken()": "infinite"
					},
					"internal": {
						"buyBack(address)": "infinite",
						"tapIn(address,uint256)": "infinite"
					}
				},
				"methodIdentifiers": {
					"aaveGateway()": "4fe0c742",
					"checkStatus()": "3b7104f2",
					"getEthUsdPrice()": "a0a8045e",
					"poolFee()": "089fe6aa",
					"s_userProfile(address)": "b119fb13",
					"setUserProfile(uint256,uint256,uint256)": "6b0e6976",
					"swapRouter()": "c31c9c07",
					"usdtToken()": "a98ad46c"
				}
			},
			"storageLayout": {
				"storage": [
					{
						"astId": 246,
						"contract": "XYield_flattened.sol:XYield",
						"label": "s_userProfile",
						"offset": 0,
						"slot": "0",
						"type": "t_mapping(t_address,t_struct(UserInputs)241_storage)"
					},
					{
						"astId": 252,
						"contract": "XYield_flattened.sol:XYield",
						"label": "s_users",
						"offset": 0,
						"slot": "1",
						"type": "t_array(t_address)dyn_storage"
					},
					{
						"astId": 254,
						"contract": "XYield_flattened.sol:XYield",
						"label": "lastTimeStamp",
						"offset": 0,
						"slot": "2",
						"type": "t_uint256"
					}
				],
				"types": {
					"t_address": {
						"encoding": "inplace",
						"label": "address",
						"numberOfBytes": "20"
					},
					"t_array(t_address)dyn_storage": {
						"base": "t_address",
						"encoding": "dynamic_array",
						"label": "address[]",
						"numberOfBytes": "32"
					},
					"t_mapping(t_address,t_struct(UserInputs)241_storage)": {
						"encoding": "mapping",
						"key": "t_address",
						"label": "mapping(address => struct XYield.UserInputs)",
						"numberOfBytes": "32",
						"value": "t_struct(UserInputs)241_storage"
					},
					"t_struct(UserInputs)241_storage": {
						"encoding": "inplace",
						"label": "struct XYield.UserInputs",
						"members": [
							{
								"astId": 236,
								"contract": "XYield_flattened.sol:XYield",
								"label": "collateralTapInPrice",
								"offset": 0,
								"slot": "0",
								"type": "t_uint256"
							},
							{
								"astId": 238,
								"contract": "XYield_flattened.sol:XYield",
								"label": "collateralBuyBackPrice",
								"offset": 0,
								"slot": "1",
								"type": "t_uint256"
							},
							{
								"astId": 240,
								"contract": "XYield_flattened.sol:XYield",
								"label": "collateralToLiquidate",
								"offset": 0,
								"slot": "2",
								"type": "t_uint256"
							}
						],
						"numberOfBytes": "96"
					},
					"t_uint256": {
						"encoding": "inplace",
						"label": "uint256",
						"numberOfBytes": "32"
					}
				}
			},
			"userdoc": {
				"kind": "user",
				"methods": {},
				"version": 1
			}
		}
	}
}